S01E0000656B5F72613870315F6475616C636F72655F435055312E7372656305
S3150208000060B00E22651A0802DD180802751A08027F
S31502080010751A0802751A0802751A0802751A08026C
S31502080020000000000000000000000000751A080227
S31502080030751A080200000000751A0802751A0802E5
S31502080040010E0802390D0802010F08028D0F080277
S309020800505111080230
S315020800541000000000000000017A5200017C0E0123
S315020800641B0C0D00100000001800000004340000E8
S3110208007410000000000000000000000060
S3150208009000200E2200000000000000000000000000
S315020800A00000080000000000000000000000000038
S315020800B00000100800000000000000000000000018
S309020800C010400000DC
S315020800D080B56F4684B000F099FA00B100BE43F6C7
S315020800E0644043F64841C0F20820C0F2082100F0F5
S315020800F05FFA00B100BE4BF2E000C2F20E20042104
S3150208010000F0FEFF43F68600C0F2082000F0A6FAC9
S3150208011043F66A30C0F208200421012200F09EFA52
S315020801204BF290084BF291049FEDD08A9FEDD09A3C
S315020801309FEDD0AA9FEDD0BA43F663164BF2980B01
S3150208014046F230594FF0000AC2F20E28C2F20E24C5
S31502080150C0F20826C2F20E2BC6F67279002502E014
S315020801609BF80000C0BB98F8000020B1484600F092
S3150208017075FA88F800A020780128F1D14BF294008C
S31502080180C2F20E2090ED000A4EF6A050C0F2C1202F
S3150208019090ED001AB8EE400AB8EE411A21EE081A96
S315020801A020EE080A21EE091A20EE090A30EE410A63
S315020801B080EE0A0A30EE0B0A10EE100A03F075F901
S315020801C041EC100B3046032101228DED000B00F0A5
S315020801D045FA84F800A0C3E7E8B202283FD04BF2FA
S315020801E099050128C2F20E254CD100F079F958B1C9
S315020801F0034643F63100C0F208200B21012200F023
S315020802002DFA00F00DFA00BE4AF22000C2F20E20C4
S315020802100068294600F60500202203F01AF94BF277
S31502080220E000C2F20E20022100F06AFF43F63740D0
S31502080230C0F2082001F088FB43F6F800C0F2082055
S3150208024000F00CFA43F66A30C0F2082004210122B3
S3150208025000F004FA2846202103F0F7F8CEE04BF224
S315020802609900C2F20E2003A90A2201F0FFFC0399A3
S31502080270097851B34BF29900C2F20E20202103F0FD
S31502080280E4F82DE0284601F0C0FC29460546084652
S31502080290202103F0DAF8E8B203285CD0022832D02B
S315020802A0012840F0958043F6F800C0F2082000F0D5
S315020802B0D5F943F6C020C0F20820042101220125FF
S315020802C000F0CCF98BF800A04DE705464BF29900F1
S315020802D0C2F20E20202103F0B8F83B2D40F292809C
S315020802E043F6F800C0F2082000F0B8F943F66A307F
S315020802F0C0F208200421012200F0B0F943F68E204C
S31502080300C0F2082076E000F01FF958B1034643F61A
S315020803103100C0F208200B21012200F09FF900F0FB
S315020803207FF900BE4AF22000C2F20E20006890F859
S31502080330045843F6F800C0F2082000F08FF9012DA0
S315020803407AD143F68D10C0F208200421012200F06A
S3150208035085F9022581E000F0F7F858B1034643F61D
S315020803603100C0F208200B21012200F077F900F0D3
S3150208037057F900BE4AF22000C2F20E20006890F831
S315020803800408012843F68E00C0F2082007D101F0BE
S31502080390E5FA002843F2EC70C0F2082003D00B21DC
S315020803A0012200F05BF943F6F800C0F2082000F0DB
S315020803B055F943F66A30C0F208200421012200F0FA
S315020803C04DF943F63640C0F2082001F0BDFA15E0B1
S315020803D043F6F800C0F2082000F040F943F66A3006
S315020803E0C0F208200421012200F038F943F607403A
S315020803F0C0F208200B21012200F030F900258BF803
S3150208040000A0B0E64BF2E000C2F20E20294600F048
S315020804106FFE43F6F800C0F2082000F01FF943F613
S315020804206A30C0F208200421012200F017F94BF2C3
S315020804309900C2F20E200EE743F66A30C0F208208F
S315020804400421012200F00AF943F68E00C0F20820C0
S315020804500B21012200F002F9002543F63640C0F2CC
S31502080460082001F071FA8BF800A07CE6333353407A
S31502080470000080397CF2303B0000BE42FFF728BEFE
S31502080480022818BF70474BF2BC0043F6D441C2F2A9
S315020804900E20C0F2082100F0BBBED4D48168B1F5A3
S315020804A0803F0FD0022907D0012918BF70474BF2A7
S315020804B09000C2F20E200FE043F63740C0F2082041
S315020804C001F042BA40684BF29401C2F20E2108606A
S315020804D04BF29100C2F20E20012101707047D4D46A
S315020804E0F0B503AF2DE9000B82B043F63744C0F2EC
S315020804F00824204601F01CFA43F65B0943F6423803
S3150208050043F6760640F27A55C0F20829C0F2082860
S31502080510C0F2082690B1A84205D00828FAD120468A
S3150208052001F006FAF6E740460B2101223346CDF8DA
S31502080530009000F093F840F27A50EBE7002002B000
S31502080540BDE8000BF0BDD4D4F0B503AF2DE9000B1E
S3150208055082B043F63644C0F20824204601F0E8F990
S3150208056043F6702943F6423843F6E70640F27A55CF
S31502080570C0F20829C0F20828C0F2082690B1A8429B
S3150208058005D00828FAD1204601F0D2F9F6E7404606
S315020805900B2101223346CDF8009000F05FF840F2B5
S315020805A07A50EBE7002002B0BDE8000BF0BDD4D4C8
S315020805B0B0B502AF82B0D0E900020C46114600F08F
S315020805C04BFD28B143F65A240546C0F2082409E031
S315020805D0D4E9000100F040FDA0B143F61B0405462C
S315020805E0C0F2082443F6423043F65123C0F20820EB
S315020805F0C0F208230B210122009400F02FF82846A6
S3150208060002B0B0BD002002B0B0BDD4D44BF20C107B
S3150208061043F6B441C2F20E20C0F2082100F0ECB84B
S3150208062080B56F464BF20C10C2F20E2040680028C5
S3150208063008BF80BD4BF20C10C2F20E2000F0F6FA8B
S3150208064058B1034643F63100C0F208200B210122B5
S3150208065000F004F8FFF7E4FF00BE80BD83B0F0B5F2
S3150208066003AF2DE9000BADF6040D814607F108002C
S315020806700EC001A84FF4006102F0E7FE46F23058B8
S31502080680C6F67278C1450FD007F1080201A8494695
S31502080690009201F067FB002849D401A802F0EAFE9D
S315020806A0064670B9172545E04AF22000C2F20E2026
S315020806B0056801A829464FF4006202F0CAFED5F879
S315020806C000684BF2B904C2F20E24002020704BF2E5
S315020806D00C10C2F20E2001A9324600F06FFA054646
S315020806E058B143F63100C0F208200B2101222B46ED
S315020806F0FFF7B4FFFFF794FF00BE207802280CD05C
S315020807004FF47A707043C643013612D20120012192
S3150208071001F09EF820780228F6D1C1450AD14BF29B
S31502080720E000C2F20E20082100F0EAFC02E00325EE
S3150208073000E0142528460DF6040DBDE8000BBDE8B9
S31502080740F04003B07047D4D4002845D001794BF263
S31502080750B902C2F20E221170117804293CD18068BE
S31502080760082812D00D2801D00A2826D14BF2BA0041
S31502080770C2F20E20018879B34BF29801C2F20E2119
S3150208078001220A700021018070474BF2BA00C2F2B8
S315020807900E200188002908BF704701884BF299028A
S315020807A001390180018843F61600C2F20E2200239F
S315020807B0C0F208205354FFF751BF4BF2BA01C2F2F6
S315020807C00E210A881F2A08D80A88531C0B804BF266
S315020807D09901C2F20E218854704743F60310C0F2FB
S315020807E008200B210122FFF739BFD4D480B56F4602
S315020807F0FFF744FE002080BDF0B503AF2DE9000FD8
S3150208080081B00D460446087848F20001C4F2350163
S3150208081001EB0020206200202070E56169694EF232
S3150208082000186162A969CEF20008C4E90A01A07833
S31502080830D5F81C9020F00300411CA17069784FF08E
S31502080840010C002904BF40F00200A07095F90B6064
S31502080850AA7A06F01F010CFA01F308F18001700961
S3150208086041F820304CF2003ABFF34F8FC4F2000A27
S31502080870BFF36F8F5AF826004BF2981E20F4803089
S315020808804AF826005AF82600100108F54072C2F204
S315020808900E2E90554EF8264095F9050095F804B0A7
S315020808A000F01F030CFA03F3460941F82630BFF39A
S315020808B04F8FBFF36F8F5AF8203023F480334AF8EC
S315020808C020305AF820304FEA0B1313544EF82040C2
S315020808D095F9070095F806B000F01F060CFA06F619
S315020808E0430941F82360BFF34F8FBFF36F8F5AF85E
S315020808F0203023F480334AF820305AF820304FEA61
S315020809000B1313544EF8204095F9090095F808B0D0
S3150208091000F01F060CFA06F6430941F82360BFF3F6
S315020809204F8FBFF36F8F5AF8201021F480314AF89F
S3150208093020105AF820104FEA0B1111544EF8204095
S31502080940E868E0B140684FF4002100680160E96890
S31502080950D4F820C04A6813681E6826F040561E60FE
S31502080960E2695278002A04BF46F080521A60C0F83B
S3150208097004C007C912689047002840F01A812869FE
S3150208098040B340684FF00061D0F800C0CCF80010C0
S315020809902969266A4A6804361268136823F040539E
S315020809A01360E0694078002804BF43F08050106065
S315020809B0CCF8086007C91268904758B1E968002957
S315020809C000F0F7808A680968126A04460846904762
S315020809D02046EEE0EFF31086012080F3108843F2FA
S315020809E004022878C4F220024FF00041136821FA63
S315020809F000F023EA0000106010689620012100F03A
S31502080A0027FF86F31088206A4FF480618160E869BF
S31502080A10EB784FF4804606EA8333467895F801E088
S31502080A20F603427B0178B6B26EF3092302F001029D
S31502080A30334401F0030143EA425242EA0161226A5F
S31502080A4001F58051D0F804C05161027802F0FE0126
S31502080A50022907D14FF60471CFF60071022A08BFA0
S31502080A60203101E0DCF80010226A0C231161027BB6
S31502080A70817863F39F02AB784FF44076022B08BF66
S31502080A804FF48076002B18BF324301F00101236A26
S31502080A9042EA0171D960226A002191612A78092AFB
S31502080AA004D8226A0023C1F61F735362827BC37B72
S31502080AB0007C02F0010263F30C2200F01F00236A95
S31502080AC042EA00401863C4E90311C4E90511B9F8FA
S31502080AD00A0010212081206AC9F607518166E06959
S31502080AE090F905205AF8220002F01F0120F48030FE
S31502080AF04AF822005AF82200012000FA01F308F502
S31502080B00C0715209BFF35F8F41F8223048F822308C
S31502080B10E26992F90B205AF8223023F480334AF814
S31502080B2022305AF8223002F01F0300FA03F3520960
S31502080B30BFF35F8F41F8223048F82230E26992F912
S31502080B4007205AF8223023F480334AF822305AF81A
S31502080B50223002F01F0300FA03F35209BFF35F8F34
S31502080B6041F8223048F82230E26992F909205AF807
S31502080B70223023F480334AF822305AF8223002F01F
S31502080B801F0398405209BFF35F8F41F8220048F8C5
S31502080B902200206A40F21141C0F201018160206AF6
S31502080BA0017FC907FCD044F64210C5F243306060A3
S31502080BB0002001B0BDE8000FF0BDD4D4F0B503AFF4
S31502080BC04DF804BD036A9D6825F440159D60036AC5
S31502080BD09D6C6D00FCD59D6825F010059D60036A25
S31502080BE01D7FED06FCD4C0E90312B2B1C4692569BA
S31502080BF09DB1837800250561064603F00300236943
S31502080C0001389D68C2401868AD6893B20022A847A9
S31502080C1010B15DF804BBF0BD336A986840F0101055
S31502080C20986000205DF804BBF0BDD4D4B0B502AF1D
S31502080C300446406844F64211C5F2433188421CBF55
S31502080C400720B0BD206A816821F440118160206ABC
S31502080C50816821F010018160206A00BF017FC90600
S31502080C60FCD4E06990F90710012001F01F024B0934
S31502080C704EF2801100FA02F2CEF2000141F8232068
S31502080C80BFF34F8FBFF36F8FE26992F9092002F023
S31502080C901F0300FA03F3520941F82230BFF34F8FBC
S31502080CA0BFF36F8F226A936823F480339360E269F5
S31502080CB092F9052002F01F0300FA03F3520941F8DC
S31502080CC02230BFF34F8FBFF36F8FE26992F90B2081
S31502080CD002F01F039840520941F82200BFF34F8FD2
S31502080CE0BFF36F8FE069C16821B18A680868116A23
S31502080CF08847E069006918B181680068096A884707
S31502080D00EFF31085012080F31088E06943F20402AC
S31502080D100078C4F220024FF00041136821FA00F06D
S31502080D201843106010689620012100F091FD85F3A2
S31502080D30108800206060B0BDD0B502AF84B0EFF372
S31502080D4003804FF0704101EB00604CF200318015D0
S31502080D50C4F20001425822F48032425041584BF202
S31502080D609811C2F20E210C58E0690169206911B185
S31502080D70E0B104B0D0BDC8B1A07800F00301E068C4
S31502080D80022905D10088216A20F4DC40486002E085
S31502080D900078216A0871A078216900F00302881A8E
S31502080DA0E16820611144E1600028E2D1206A02224A
S31502080DB0816862F315518160606A00210028E1604A
S31502080DC0D7D0A06A40B1D0E900C2D0E90213CDE972
S31502080DD000C2CDE9021300E06846E16909780160BC
S31502080DE00021816080210171E16AC160616A8847D8
S31502080DF0A06A00281CBF9DE81E001EC004B0D0BD14
S31502080E00B0B502AF86B0EFF303804FF0704101EB45
S31502080E1000604CF200318015C4F20001425822F4F7
S31502080E208032425041584BF29811C2F20E210C58A8
S31502080E30E169C86898B1A06988B1626A0020002A87
S31502080E406061A0615AD0A06A002844D0D0E900C3E4
S31502080E50D0E90225CDE902C3CDE904253CE0A07814
S31502080E6000F00302206A022A03D103686FF35F23A4
S31502080E7000E00378A0690193C8B1606901A902F08C
S31502080E80E8FAA0786169A26900F003000144101A21
S31502080E906161A06132D1606A80B3A06AD0B1C368C9
S31502080EA090E82600059302AB26C3E16914E0606A5E
S31502080EB020B3A06A40B1D0E900CED0E90252CDE90A
S31502080EC002CECDE9045200E002A8097883600160E7
S31502080ED0042106E0E16902A809780160002181601F
S31502080EE001210171E16AC160616A8847A06A28B175
S31502080EF002AD2ECD016042608360C56006B0B0BD0A
S31502080F00B0B502AF84B0EFF303804FF0704101EB46
S31502080F1000604BF298128115C2F20E2255584FF60E
S31502080F20EF73296ACFF6CF738A6804161A408A6065
S31502080F30696AE1B1A86A40B1D0E900C2D0E90213F0
S31502080F40CDE900C2CDE9021300E06846E9690978ED
S31502080F5001600021816002210171E96AC160696A42
S31502080F608847A86A00281CBF9DE82E002EC04CF2AE
S31502080F700030C4F2000050F8241021F4803140F801
S31502080F80241050F8240004B0B0BDD4D4F0B503AF91
S31502080F904DF804BD84B04FF07041EFF3038001EBC6
S31502080FA0006E4BF298124FEAAE51C2F20E22545814
S31502080FB0A178236A01F00301022904D1D3F800C0FB
S31502080FC06FF35F2C01E093F800C09A6C2025082085
S31502080FD005EAD245102100EA126011EA1261284494
S31502080FE000EB010203D0986C000458BF4032986E99
S31502080FF04FEA2E6540F0C8509866606AD8B1A06A72
S3150208100040B1D0E900E3D0E90261CDE900E3CDE9D8
S31502081010026100E06846E1690978C0F808C0016023
S315020810200271E16AC160616A8847A06A00281CBF2A
S315020810309DE84E004EC04CF20030C4F2000050F853
S31502081040251021F4803140F8251050F8250004B007
S315020810505DF804BBF0BDD4D4416002468868C0235B
S315020810601061C868C4F202039061002050610868E2
S3150208107003EB40109060086803EB40104030D060E4
S3150208108091F9040000282CD449794EF2001CC0B20A
S31502081090CEF2000C090140EA0C0383F800134BF266
S315020810A09811C2F20E2141F820204CF20031C4F206
S315020810B0000151F8203023F4803341F8203051F8EA
S315020810C0201000F01F01012303FA01F11C2303EA91
S315020810D0D00040EA0C03BFF35F8FC3F8801140F8D3
S315020810E00C1045F24301C5F24921002011607047F0
S315020810F08068026892034EBF0C2081600020704708
S3150208110082680020516070478446C0E904130020B3
S31502081110CCF818207047D4D40146406890F90400E8
S31502081120002811D4C0B200F01F02012303FA02F20A
S315020811301C2303EAD0004EF28013CEF20003C250FB
S31502081140BFF34F8FBFF36F8F002200200A607047EC
S31502081150B0B502AF84B0EFF303804FF0704101EBF4
S3150208116000604CF200318015C4F20001425822F4A4
S315020811708032425041584BF29811C2F20E210C5855
S31502081180E0680568E8031FD5606940B1D0E900C286
S31502081190D0E90213CDE900C2CDE9021300E06846A0
S315020811A06168096801604FF480318160A169C16094
S315020811B0E168C968416021698847606900281CBFDF
S315020811C09DE80E1080E80E1035F440351ED0606991
S315020811D040B1D0E900C2D0E90213CDE900C2CDE997
S315020811E0021300E068466168096885600160A169C2
S315020811F0C1600021416021698847606900281CBFD7
S315020812009DE80E1080E80E10E068056104B0B0BDD6
S3150208121080B56F4645F25422C5F24F02026008466F
S3150208122000F002F8002080BDF0B503AF4DF804BD0A
S31502081230044600F05FF84BF2941CEFF3108001218C
S3150208124081F31088C2F20E2CDCF8001039B940F688
S315020812501451C4F2400100220A7040220A70DCF8D6
S3150208126000100131CCF8001080F31088208820B3D2
S3150208127040F6000E0021C4F2400E07E00EEB801085
S3150208128040F8223020880131814216D2606800EB8C
S31502081290C102928850F83130100ADD03D2B2EDD578
S315020812A00EEB801555F8226026F4803645F8226042
S315020812B023F4803645F82260E0E7EFF31081012037
S315020812C080F31088DCF8000020B1DCF80000013851
S315020812D0CCF80000DCF8000038B940F61450C4F225
S315020812E04000002202708022027081F310885DF8A5
S315020812F004BBF0BDF0B503AF2DE9000F81B004467B
S315020813000088002861D042F240084EF64C4943F65E
S31502081310005BC4F220080026C4F20109C0F2082BB9
S3150208132004E000BF2088013686424ED2002508E036
S3150208133008F81500C820012100F08AFA0135032DA4
S31502081340F0D060683BF8152000EBC6018988914207
S31502081350F4D150F8360099F80010012200F0B8507E
S3150208136002FA05FAB0F1807F0AEA010016D158B9E5
S31502081370012000F04FFB99F8000040EA0A0089F8BC
S315020813800000012000F01AFB18F915000028D5D430
S3150208139018F8150040F08000CAE700BF58B10120CE
S315020813A000F038FB99F8000020EA0A0089F80000E4
S315020813B0012000F003FB18F91500B0F1FF3FBDDC70
S315020813C018F8150000F07F00B2E701B0BDE8000F7B
S315020813D0F0BDD4D4F0B503AF2DE9000B0D464BF2A0
S315020813E03C11C2F20E210A784AF200068046C2F27F
S315020813F00E261ABB4FF0010943F2000081F800904D
S31502081400EFF3108489F31088C4F22000016821F4EE
S315020814108001016000689620012100F019FA002077
S3150208142084F31088C6E90000C6E9020030614AF66C
S315020814301040C4F20000466000F8049C686801780F
S3150208144048B2002806D456F8211039B10820BDE85A
S31502081450000BF0BD0B20BDE8000BF0BD88F80400B8
S315020814602868F8B100F10E0105E000BF12F4400F3A
S3150208147001F110010AD051F80E2CB2F1804FF5D3C2
S315020814800B88DDB245EA03230B80EFE74AF61041E3
S31502081490C4F2000108220A7098F9042046F82200CC
S315020814A01820087044F20030C4F25440C8F800000C
S315020814B00020BDE8000BF0BDB0B502AF90F90420DC
S315020814C04CF2003CC4F2000C5CF822304AF6104E8C
S315020814D023F080734CF8223090F90420C4F2000EEF
S315020814E042F400423EF8023C9A42FBD001F10E0257
S315020814F005E000BF13F4400F02F110020AD052F8B9
S315020815000E3CB3F1804FF5D31488E5B245EA0424BC
S315020815101480EFE708228EF8002090F904204AF298
S315020815200003C2F20E2343F8221018218EF8001087
S3150208153090F904105CF8210040F0807200204CF803
S315020815402120B0BDD0B502AF82B0019100924CF213
S31502081550003C90F904104AF20002C4F2000CC2F2EE
S315020815600E2252F821E05CF8212022F080724CF813
S31502081570212090F904104AF61042C4F2000241F4FE
S31502081580004100BF32F8024CA142FBD0082111707B
S31502081590019900291CBF0199CEF804100099002967
S315020815A01CBF0099CEF80810DEF8001001F040447E
S315020815B0B4F1004F02D1AEF80C3005E00024B4EBCA
S315020815C0917F08BFAEF80E301821117090F90410F9
S315020815D05CF8210040F0807200204CF8212002B00D
S315020815E0D0BDD4D490F904104CF20032C4F20002F1
S315020815F052F8210040F08073002042F821307047EB
S3150208160090F904104CF20032C4F2000252F821009A
S3150208161020F08073002042F8213070470620704778
S315020816200620704790F904004AF20002C2F20E221E
S3150208163052F820000022C1E900220268B2F1804F66
S3150208164006D24FF480328A60C089C860002070478B
S315020816504FF480728A60C289D2B2CA60026802F006
S315020816604042B2F1004FF1D14FF480320A608089CC
S31502081670486000207047D4D4014690F904004CF221
S315020816800032C4F2000252F8203023F0807342F886
S3150208169020304AF20002C2F20E22002342F820301B
S315020816A000200B607047D4D4062070470620704786
S315020816B04EF22401C4F2010188780988C1F30312A3
S315020816C0A2F1080103293BD8DFE801F0022C101E1B
S315020816D04BF26001C2F20E2151F820004AF6AB2104
S315020816E0CAF6AA21A0FB0101480830E04BF26001C4
S315020816F0C2F20E2151F820004AF6AB21CAF6AA21F7
S31502081700A0FB0101C80822E04BF26001C2F20E21D9
S3150208171051F820004AF6AB21CAF6AA21A0FB01011C
S31502081720080914E04BF26001C2F20E2151F82000BA
S315020817304AF6AB21CAF6AA21A0FB0101880806E0EF
S315020817404BF26001C2F20E2151F82000D0404BF252
S31502081750B411C2F20E2108607047D4D4F0B503AFB3
S315020817604DF804BD4BF2600046F6004141F20022F4
S31502081770C2F20E20C0F2DC21C0F27A0243F2006CF9
S315020817804FF40043C0F26E1C80E80E104BF20002C2
S315020817904CF6002E44F2553448F2004543F600064C
S315020817A04DF20001C0F67132C3F69A3EC1F2DE343A
S315020817B0C1F2D775C1F69C46C1F2123182624EF267
S315020817C02402C0E9043EC0E90664C0E90851C4F22D
S315020817D0010291781288C2F30313A3F10802032ABD
S315020817E02BD8DFE802F002200C1650F821004AF640
S315020817F0AB21CAF6AA21A0FB0101480820E050F84D
S3150208180021004AF6AB21CAF6AA21A0FB0101C808A3
S3150208181016E050F821004AF6AB21CAF6AA21A0FB27
S31502081820010108090CE050F821004AF6AB21CAF674
S31502081830AA21A0FB0101880802E050F82100D8403D
S315020818404BF2B411C2F20E2108605DF804BBF0BD7A
S315020818504BF2B412C2F20E22126841F20023C0F20F
S315020818607A039A4201FB00F00FD340F6FF01C0F259
S315020818703D0111444DF68362C4F21B32A1FB0212EA
S31502081880110DA0FB0101D9B11FE04CF6002348F661
S315020818903811C3F69A33C0F24101B3FBF2F2884219
S315020818A006D24FF47A714843B0FBF2F0800807E09B
S315020818B09200B0FBF2F0884207D24FF47A7148439D
S315020818C0002808BF704700F005B84FF0FF3000F057
S315020818D001B8D4D401380028FCD17047F0B503AF5B
S315020818E04DF8048D4CF22014C4F2000454F8200C6E
S315020818F021684BF2401801EA00050026C2F20E28BA
S3150208190003E000BF0136152E0AD025FA06F0C007F5
S31502081910F8D058F826100029F4D0F0B28847F1E733
S3150208192044F8105C20682842FCD15DF8048BF0BDAF
S3150208193000780021C4F2020151F82000002818BFDD
S315020819400120C0007047D4D401780022C4F20202F2
S315020819500123002042F821307047D4D48421C4F2EE
S315020819600201012200200A607047D4D4B0B502AF42
S3150208197043F6E0414CF2003C46F240030020C0F236
S315020819800821C4F2000CC4F200034FF0010E03E072
S315020819900130052808BFB0BD31F81020002AF7D05B
S315020819A04CF82020540953F8245002F01F020EFA6C
S315020819B002F22A4343F82420EAE7D4D40122EFF3B9
S315020819C0108182F310884BF2AC12C2F20E2232F860
S315020819D0103023B132F81030013B22F8103032F8B9
S315020819E0102012B181F3108870474EF2FA3CC4F205
S315020819F0010C43F68072BCF80030C0F2082232F8B5
S31502081A00100043F4254222EA0000ACF8000081F3F4
S31502081A101088704780B56F460122EFF3108182F372
S31502081A2010884BF2AC12C2F20E2232F810308BB981
S31502081A304EF2FA3C43F68073C4F2010CC0F2082354
S31502081A40BCF800E033F8103043EA0E0343F42543AA
S31502081A50ACF8003032F81030013322F8103081F336
S31502081A60108880BD80B56F4600F006F8FEF7BEFE08
S31502081A70FEE7D4D400BE7047F0B503AF2DE9000BDC
S31502081A804EF60850CEF200004FF47001C0F88010EE
S31502081A9040F20001C0F208214CF204040160002061
S31502081AA0C4F20104FEF7ECFCFFF758FE206840F08A
S31502081AB00100206020680028FCD1012044F8040CAB
S31502081AC0FEF7DEFC43F65458C0F20828D8F8006040
S31502081AD04AF26000C2F20E2080F30A888EB1D8F864
S31502081AE004003546041D03E0013D04F10C0408D048
S31502081AF060790028F8D154E90101091A01F0A5FC18
S31502081B00F2E7D8F80890B9F1000F13D0D8F80C000C
S31502081B104D4600F1080403E0013D04F1100409D022
S31502081B2060790028F8D154E902022168121A01F0F4
S31502081B3090FCF1E7FFF7BCFD0320FFF76BFF44F2C9
S31502081B400400C4F220000021016041608160C16086
S31502081B500320FFF733FF0220FEF792FCA6B1D8F85E
S31502081B6004004FF48075041D04E000BF013E04F131
S31502081B700C0409D06079B5EB002FF7D154E90101BD
S31502081B80091A01F062FCF1E7B9F1000F16D0D8F88C
S31502081B900C004FF4807600F1080404E0B9F101095B
S31502081BA004F110040AD06079B6EB002FF6D154E995
S31502081BB002022168121A01F04CFCEFE74BF2C41438
S31502081BC0C2F20E24204600F025F8204600F038F826
S31502081BD044F21A4044F21A41C0F20820C0F208211F
S31502081BE0091A8C10012C06DB051F00BF55F8040FD5
S31502081BF08047013CFAD1FFF7B9FE0020BDE8000B89
S31502081C00BDE8F04000F000B8704700210A2200F053
S31502081C102DB8D4D4D0B502AF05490446054A01F019
S31502081C2018FC05480549204401F00FFCD0BD00BF49
S31502081C30C4000802000000000000000004000000C2
S31502081C400249401A02490860704700BF08000000AE
S31502081C50C0B10E22D4D4D4D4D4D4D4D4D4D4D4D4E3
S31502081C600148006870470000C0B10E22F0B503AF04
S31502081C702DE9000B8146242A01D8012A0BD1384ABC
S31502081C801623FFF7EDFF835009B1C1F80090002033
S31502081C90BDE8000BF0BD314B484610F8015B5C19F4
S31502081CA064782407F9D42B2D04D02D2D07D14FF0B3
S31502081CB0010E01E04FF0000E10F8015B01E04FF053
S31502081CC0000E302D0CD112F02F0F02BF037803F04D
S31502081CD0DF03582B3CD0002A08BF0822302502E031
S31502081CE0002A08BF0A2204466FF000400EEB0008DD
S31502081CF0B8FBF2F6002006FB128C23466C1E44F053
S31502081D002004392D88BFA4F12605A5F13004944292
S31502081D100DD2B04202DC03D1644501D94EF0020E5F
S31502081D2000FB02401C4614F8015B9946E5E709B137
S31502081D30C1F800905FEACE7118BF40425FEA8E7121
S31502081D40A6D507492222FFF78BFF425040469FE756
S31502081D50841C457810228146C6E700BF883F0802E0
S31502081D6008000000B0B502AF88B004460B480290DE
S31502081D7002208DF806006FF00040002520440795E2
S31502081D80CDE90355ADF804500594069001A800F074
S31502081D9007F8002800D4255408B0B0BDC72A08029F
S31502081DA0F0B503AF2DE9000F95B0814680781492FD
S31502081DB0800740F1DC84D9F8040000260C90884696
S31502081DC0149813900DA8821D0892421D0138079295
S31502081DD005900A91414611F8010B252803D0884639
S31502081DE040B900F0C6BC98F801A008F10208BAF199
S31502081DF0250F06D100F0B5FD01360028EAD500F018
S31502081E00B0BC002200244FF0000C4FF0000B1FFA62
S31502081E108BF51F2D0DD8AAF12700092831D8DFE83E
S31502081E2000F0B10A0A0A050A730A0A704BF0020B95
S31502081E3061E07F2D11D8AAF1300009282AD8402D51
S31502081E4027BF04EB840100EB41040CEB8C0100EB89
S31502081E50410C38BF4BF0200B94E0BAF14C0F4DD031
S31502081E60BAF1680F53D0BAF16A0F47D0BAF17A0FAE
S31502081E7018BFBAF1740F00F08580BAF16C0F4DD015
S31502081E8088E0BAF1200F36D0BAF1230FD3D14BF03E
S31502081E90100B77E0BAF1240F4DD0BAF17A0F71D050
S31502081EA0BAF12E0F41D0BAF14C0F27D0BAF1680F0A
S31502081EB02DD0BAF16A0F21D0BAF16C0F2ED0BAF131
S31502081EC0740F5FD0BAF12A0F64D1002A5AD1139837
S31502081ED0011D139100683F2D52D8B0F1FF3FDDBFB7
S31502081EE04BF0280BC0F1000C00224BF0200BC4BFAC
S31502081EF00022844646E04BF0040B43E04BF4207B79
S31502081F0040E04BF0010B3DE04BF0080B3AE00BF4D6
S31502081F1080704BEA400040F4807B33E00BF080008F
S31502081F204BEA800040F0800B2CE03F2D00F2218422
S31502081F304BF0400B26E0E2B11498402DCDF82C90D8
S31502081F4091462246139038BF62460A9813A9A246BA
S31502081F50644600F019FC1398A44654464A46011DE5
S31502081F601391DDF82C90402D006834BF8446044650
S31502081F7008E0624600244FF0000C4FF0000B01E027
S31502081F800022044618F801ABBAF1000F7FF43FAFFE
S31502081F904FF0000ACDF82CC03AB1149813900A985B
S31502081FA013A900F0F1FBDDF82CC04AF02000002C42
S31502081FB024EAE475A0F1650148BF2BF0400B03291A
S31502081FC001D3612830D11399A0EB0A0A073121F00F
S31502081FD00701612801F10802139291ED000B13D152
S31502081FE05FEA4B6058BF4FF0FF350DAC5FFA8AF2D5
S31502081FF02946204600F0C0FC0546421C70204BF4D8
S31502082000C05B0290012041E05FEA4B6158BF06259A
S31502082010C1B20DAC662920D0652926D165204BF4BC
S31502082020805B691C002326E05FFA8AF2A2F16F013F
S31502082030062959D8099208234FF0000EDFE811F055
S31502082040EF010700E901E901B001E901A8014BF036
S31502082050100B10234FF0780EE1E166204BF4005B7B
S315020820600122029011212B4607E02906294608BFBC
S3150208207001210023023802900022C9B22046112902
S3150208208028BF112100F027FD024602200D9B13F1FD
S31502082090090F07DA13F1630F0DD213F57A7F08D801
S315020820A0042009E0092B07DD632B04D9B3F57A7FEF
S315020820B0F6D2032000E002209DF838101FFA8BFCA6
S315020820C00390C8070CD196465FEA8B720AD45FEA78
S315020820D04C7220D40020724606904FF0010E1FE083
S315020820E02D201AE02B2017E0692A18BF642A40F02F
S315020820F039811FFA8BF05FEA0B6100F1408113996F
S315020821000A1D13920A68C10540F14081800554BF31
S3150208211012B252B23AE12020724606904FF0000EF1
S3150208212011F00C0F19D00420BEF1000F18BF0320BE
S315020821300B99814221DD5FEA0B7120D40B99754612
S31502082140441A00F006FC002800F10B83013406F15C
S315020821500106F6D30024AE4613E01BF4405F42D1D3
S31502082160012D98BF0125D1B259B310460A19127921
S31502082170302A024625D1013AF5E7002401E00B99F7
S315020821800C1ABEF1000F06D1069800F0EDFB0028E6
S3150208219000F1E78201369DF83800DFF8E8550007B6
S315020821A0DFF8DC0558BF05462878002800F0D082FB
S315020821B0A0EB0A0000F0DBFB013601350028F3D557
S315020821C0CFE25FEACC6048BF294613F1040F09DB68
S315020821D0AB4207DA8B424BF4005BAEBF0025D8430D
S315020821E00D1800E04D1E1FFA8BF15FEA8B404FEA8D
S315020821F0015B04910993019207D40520BBF1000FF4
S3150208220058BF03200399084403E0581C012BB8BFA2
S315020822100120691C8EF0010C002D049A08BFC2F336
S31502082220001101EB0C030B9C0344E41A4FF0000364
S31502082230D8BF1C4612F0090F12D18CB108440B996B
S315020822406044CDF800E0441A00F083FB002800F150
S315020822508882013406F10106F6D3DDF800E000248F
S31502082260BEF1000F06D1069800F07EFB002800F1A9
S3150208227078820136BBF1000F0CD500F066FB002808
S3150208228000F16F82CAF1780000F071FB002800F1B4
S31502082290688202360498000709D444B1264400F03D
S315020822A054FB002800F15D82013CF8D10024049811
S315020822B00999019A80042DD49DF83900934631284C
S315020822C01EBF9DF8381001F0EF018DF8381000F0A6
S315020822D048FB002800F14582012DC0F2E78000F094
S315020822E03CFB002800F13D82A8195FFA8BF6023002
S315020822F00B900020854200F0A98100F1010BB3453D
S315020823003ABF0899085C302000F02BFB0028584693
S31502082310F0D526E2079821EAE17AC5F1000BCAF15F
S31502082320000508440690D0B20B90012D05D100F0A5
S3150208233014FB002800F115820136099841194FF05D
S31502082340300004D40B9A9142BCBF0698405DDA4528
S3150208235055DD00F006FBAAF1010A0135013600280F
S31502082360E3D5FEE1632A099253D1139801250DF1AB
S31502082370340A011D139100688DF8340027E08005A0
S31502082380139800F19980011D13910268D3179BE0F7
S315020823904FF6EF700BEA000B0A234FF0750E3EE07C
S315020823A01398011D13915FEA4B6158BF4FF0FF3531
S315020823B0D0F800A02946DFF8C403BAF1000F08BF17
S315020823C08246504600F072FBDDF82CC005465FEAED
S315020823D00B7000F19881AB46AC4538BFE346AC4575
S315020823E040F290810C9A202049466446904700287C
S315020823F000F1B781A4460136A4F1010CEFE70131D9
S31502082400C0F096819DF83910352940F28B8131202A
S315020824108EE1782840F00681CAF18803D646CDF8BF
S3150208242024E04FF6F9700BEA000E5FEA0B600CD453
S315020824301398011D139100685FEACE510CD55FEA25
S315020824408E5154BF80B2C0B206E05FEA8E5013982E
S3150208245004D4011D13910068002107E0073020F01B
S3150208246007010A46496852F8080B139250EA010214
S3150208247008BF2BF0160E0DD00DF1340A74465246DB
S3150208248000F034FADDF82CC0A0EB0A0BA646DDF8FC
S3150208249024A037E05FEA4B62EED5012CECDA4FF660
S315020824A0E9700BEA000E4FF0000BF0E70498C0063D
S315020824B000F1C580701CC8E0073020F0070001460D
S315020824C0436851F8082B13915846002B48BF40F42D
S315020824D0806020F0100E82EAE37083EAE371B0EBC3
S315020824E0E37061EBE3711A4300F092800DF1340B4D
S315020824F00A2374465A4600F0F9F9A646DDF82CC0B6
S31502082500A0EB0B0B5FEA4E6002D4714658460CE00C
S315020825104FF6FE700EEA0001AB45584605DA284624
S31502082520BAF1000F08BF2EF011018AB2C90605D406
S3150208253040F20641114018BF012104E00221BAF116
S31502082540000F08BF01210C18099210071AD4D007E8
S3150208255006D05D466445BEBF0BEB0C00051B644600
S315020825602046A445C8BF60460690644509DA00F0CD
S31502082570F0F9002800F1F58001340136DDF82CC0A7
S31502082580F3E7069C0999C80610D440F206400142B0
S3150208259021D088074FF02B0058BF2020490548BF95
S315020825A02D2000F0DEF9002812D5DAE000F0CDF988
S315020825B0002800F1D680BAF1000F09D00C9A5FFA0A
S315020825C08AF049469047002800F1CB80023600E09F
S315020825D00136DDF82CC0ACEB04045D4506DD00F0DF
S315020825E0B4F9013D01360028F7D5BAE00598002569
S315020825F000EB0B0ACBF1000BAB4507D01AF8050026
S3150208260000F0B2F9013D0028F6D5AAE0761B9FE054
S315020826105FEA4B627FF56AAF012CBFF667AF4FF0F0
S31502082620000B6FE70C9A252049469047002800F1CF
S315020826309880099800F098F90236FFF7DEBB00F099
S315020826408CF9002800F18D80B01C0B90029849463F
S315020826500C9AA0EB0A00C0B29047002800F18180CC
S315020826600999002908D405D19DF83800C00603D473
S31502082670002009902B2002E02D204942099100F002
S3150208268070F900286DD40398042815D309994FF4D4
S315020826907A700C9AB1FBF0F5494605F13000C0B2E2
S315020826A0904700285DD44FF47A70099905FB1011FA
S315020826B00B9800F1030A05E00B99032801F1020AB7
S315020826C009992CD1642000F037F9002849D46420EE
S315020826D0294606FB10510AF1010A0A2000F02CF9D4
S315020826E000283ED406EB860029460AF1010AA5EB24
S315020826F0400101F1300000F03AF9002831D40AF11C
S31502082700010625E0DC462E44ACEB050405B31AF8AF
S31502082710010B00F029F9013D0028F7D521E002282E
S31502082720DBD2E6E704D19DF83810C9067FF56FAE0D
S3150208273000F017F9002814D40499701CC90606D5A6
S315020827402DB900F00AF900280BD4023600E0064635
S31502082750012CFFF63FAB00F0FCF80136013C0028DD
S31502082760F6D599F8020040F0040089F802004FF005
S31502082770FF36304615B0BDE8000FF0BD2F3C080203
S3150208278072380802BC3A0802F0B503AF2DE9000711
S315020827908246554889464FF001084FF0010C5546C6
S315020827A0944580F29D802B4613F8011B252903D0F8
S315020827B000291D46F7D193E06C780235252CF2D014
S315020827C000264FF0000E0023B1B21F2908D8A4F143
S315020827D02001102906D808FA01F1014243D101E085
S315020827E07F290AD8A4F13001092913D803EB8303F8
S315020827F046F0200601EB430335E04C2C23D0682C27
S3150208280024D06A2C1FD07A2C18BF742C2BD06C2C8F
S3150208281023D033E07A2C26D02A2C18BF2E2C01D1AD
S31502082820002320E04C2C0ED0682C0FD06A2C0AD03C
S315020828306C2C12D0742C16D0242C1FD1BEF1000F8A
S3150208284016D19E46ECE746F420760CE006F4807133
S3150208285046EA410141F4807605E006F0800146EA3F
S31502082860810141F0800615F8014B002CACD104E039
S315020828706345D5D16324E64600E00024BEF1000F85
S315020828802ED0E6457FF48CAF44F02001A1F1650312
S31502082890032B01D361290BD1D9F80010073121F096
S315020828A0070101F10803C9F800300CF1010C76E7BB
S315020828B0E3B2732B0ED0642B18BF692B08D13106ED
S315020828C008D5D9F80030B1B2890507D40433EAE746
S315020828D0632BF4D1D9F800100B1DE4E7D91DDEE706
S315020828E0BDE80007F0BD00BF89280100F0B503AFB7
S315020828F02DE9000B03F01F09984614460D460646B5
S31502082900304629464A46002300F066FF00FB196254
S31502082910A2EB0803092A88BF03F13702303204F80A
S31502082920012BB6EB0902064675F100020D46E7D2FF
S315020829302046BDE8000BF0BD0C9AB1FBF0F60D4639
S3150208294006F130004946C0B210470C9A3020494673
S3150208295010470C9A2020494610470C9A2E204946C1
S3150208296010470C9A4946104749460C9A10470C9A42
S31502082970C0B249461047D4D4F0B503AF2DE9FE0FCD
S315020829808146302089F8050050EC106B90460D46BA
S3150208299031230446C0F30A5242EA06016FF31F5472
S315020829A0214307D02AB1A2F2FF3289F80530322331
S315020829B000E03D4A4FEAD07B002D89F804B003D4E3
S315020829C00C2D03D90D253FE000253DE03320A0EB71
S315020829D0850A0692022000215246019300F052FD12
S315020829E0424205924FF000028A410492013803904E
S315020829F061F100000021204002900120524600F0B9
S31502082A0041FD82460398069A3040BAEB00000298C6
S31502082A1071EB00000BD3A800C0F1340203913046D3
S31502082A20214600F082FD0399C007069A08D016EBE4
S31502082A300A064C41B4F5801F24BF019889F805009F
S31502082A400598064004980440B2F5806F09D156EA03
S31502082A5004004FF0080008BF0420584489F804000F
S31502082A601BE094461220411F16D016F00F0201D120
S31502082A70A9420BDCA2EB080357330A2A38BF02F134
S31502082A80300309F80030A942C8BF0D46310941EAA8
S31502082A90047624090138E6E76246C9F80020284682
S31502082AA007B0BDE8000FF0BD02FCFFFFD0B502AFCC
S31502082AB04218034629B11C7814B101390133F9E7E2
S31502082AC01A46101AD0BDD1E904239A421EBF531CD6
S31502082AD00B6110707047F0B503AF2DE9000F9DB07A
S31502082AE056EC109B8C46B046C6F30A556FF31F5830
S31502082AF0F40F59EA080108BF002D0BD040F2FF7601
S31502082B00B54210D108224FF0000B002908BF042253
S31502082B10111906E030214FF0010B417100210160C5
S31502082B20A11C0171F4E10A920022022D069438BF13
S31502082B300122002918BF0121002D41EA020618BF09
S31502082B4008F580184FEA8801A5F2354441EA9971D9
S31502082B5013914FEA890104BF4FF6CC34CFF6FF74BE
S31502082B60129109F00101049107A9002C81E80910C4
S31502082B7042D4204600F0FEFA8346032C88BFABF106
S31502082B80010B584600F002FB14AD82465846294608
S31502082B9000F08EFB18A81AA92A460F96CDE900104E
S31502082BA0ABEB04005044414600F17C0348460296CA
S31502082BB000F0CEF98246BBF1150F109100F29A8009
S31502082BC0129E139C3046214600F0B2F9820842EA68
S31502082BD0817120F0030008444042F04254D1304645
S31502082BE0214600F0DBFA00210F9158454FF000000C
S31502082BF028BF0120119080E0C4F1000B584600F06E
S31502082C00BFFA8246601C18BFAAF1010AABEB0A0B8F
S31502082C10584600F0BBFA14A9054658468B4600F0FA
S31502082C20DBFA18A81AA95A460296CDE90010AAEBA9
S31502082C30050000F17D034846414600F089F90AEB92
S31502082C40040B8046BAF1010F109105D80498DDE904
S31502082C50095250BB0F9631E0099DBAF13E0F31D8A1
S31502082C604FF0FF304FF0FF31524600F00BFC139A3B
S31502082C7022EA0101129A22EA00000843B0FA80F019
S31502082C804009119000201FE0049810BB0F98C0431A
S31502082C90801964F1000100F081FA0021119158456A
S31502082CA04FF0000028BF012026E0DDE91A010138AD
S31502082CB01A9061F100001B9000200F900120089BDA
S31502082CC0119004E000201190089B0A9A0F90C246C0
S31502082CD016E046F00200214600F060FADDE91A1213
S31502082CE04B1E62F10004584538BF0B461A9338BF8B
S31502082CF014461B94002011900F900A9ADDE90835B4
S31502082D00284672B1109950461C4600F00FFA0BEB92
S31502082D100401234608440128D8BF01208542B8BFCA
S31502082D202846DDE918690025DDE91A410B900020DD
S31502082D30CDF814B0CDE9120020460E940D9100F09C
S31502082D40EEF804468B4630464946CDF8309000F0F8
S31502082D50E6F88046001B894671EB0B000DD31099E5
S31502082D60504600F0E3F90B99884221DD2A460125EF
S31502082D7019B9109850EA0A001DD01099504600F069
S31502082D80CEF810911299119AC9B200F0E7F908EB38
S31502082D9088010F9AC6EB41014646B1FA81F182468D
S31502082DA049090A4013990F92013113915946C3E70B
S31502082DB0DDF840B004E04FF0000A4FF0000B15466C
S31502082DC00F9CDDF81490E0072BD0DDF83080CDE9B2
S31502082DD00F453046414600F0A2F8044600EB800053
S31502082DE040420D467142B1EB400F16D1DDE90D1096
S31502082DF000F095F8CDE90D105046594600F08FF8C7
S31502082E008B461299119A2646C9B2A84600F0A6F927
S31502082E101399824601311391DBE7DDE90F45CDF8B7
S31502082E203080139881441298C0B2411F18BF0121FD
S31502082E30EA070CD10C9B8AEA060283EA0B031A43B9
S31502082E4005D1049A82F001022240012A65D1119A1B
S31502082E5082F001021143002241EA0A01042888BFCE
S31502082E60012201EA02041AEB04064BF1000A304673
S31502082E70514600F05BF98046FCB10B9988451DDD89
S31502082E800A9840B108984844404420EAE0710998F3
S31502082E908842B8BF0146884510DD701D0C464AF1C6
S31502082EA000010A22002300F097FCA8F1010809F1A3
S31502082EB001098A460646214600E00B998845B8BFAD
S31502082EC041460FFA89F0DDF81C900FFA81FB0BF1E7
S31502082ED00405A0F1010800245C4512DA3046514681
S31502082EE00A22002300F078FC8A4600EB80010134AE
S31502082EF0A6EB4101064641F0300109F80510013DED
S31502082F00EAE7069889F8040008EB0B00C9F80000FE
S31502082F1058461DB0BDE8000FF0BD0124A3E780B5F1
S31502082F206F4600F005F8C00840EA4170C90880BD3E
S31502082F30F8B504AF02AA0092044A4FF0CC3300F067
S31502082F4048FADDE9020104B080BD00BFCDCCCCCC85
S31502082F50F0B503AF2DE9000F8BB01E469246D2E9B3
S31502082F60002308AC0094490041EAD074450028467B
S31502082F70214600F02EFADAE902238B46059021460D
S31502082F80DDE9088906A80090284600F022FA18EB1F
S31502082F90000849EB0109DDE90801B8EB000079EB05
S31502082FA001004FF0000038BF0120DDE906124D1C72
S31502082FB042F10004002808BF1446079408BF0D46CC
S31502082FC00296413E9AE80F0012EB0802049643EB7A
S31502082FD009030096059E069580194FF000065BEBDD
S31502082FE00100CDF80CB052F1000043F10001B0EB3C
S31502082FF0080271EB090238BF01266A1C44F1000374
S31502083000002E04BF23462A4600F004FABA68C2E92B
S3150208301000013869012831D1DAE90201DAE900CE7C
S31502083020B8EB0006059B69EB0102701E62F100010E
S31502083030B3EB0C03039BDDF810A073EB0E03DDE97B
S3150208304006544FF00003CDF800A038BF0123002B29
S3150208305004BF30461146B8EB000279EB01024FF085
S31502083060000638BF01266A1E64F10003002E04BF5B
S315020830702A46234600F0CEF9544649E0029B9AE8CE
S315020830800340A3F14006039C059BDAF80CA00096C0
S31502083090660046EAD376D0EB430076EB01004FF0A2
S315020830A000064FEA490040EAD8734FEA480040EA68
S315020830B0D474DDE9062C38BF0126B4EB0E0E63EB99
S315020830C00A05BEF1010065F10001002E04BF29467A
S315020830D07046251A73EB01054FF0000538BF012526
S315020830E0B4EB080473EB09034FF0000338BF01235E
S315020830F043EA42044FEA4C0343EAD276621E66F179
S315020831000003002D04BF2246334600F083F9049CCF
S31502083110FA68C2E900014046DDE9062349460094F9
S3150208312000F078F90BB0BDE8000FF0BDF0B503AFBB
S315020831304DF804BD00230A2401220A25461B71EB19
S31502083140030607D3A5FB045603EB8303013206EBFA
S315020831504303F3E710465DF804BBF0BDB1FA81F10B
S3150208316049090A4000EB80011192AAEB410112912A
S315020831707047D4D401494843800C70474134010052
S3150208318001494843000D7047FB2E0B00024948438C
S31502083190012101EBD04070474F931200F0B503AFFF
S315020831A04DF804BD0A4B02460A4D4FF0FF304FF068
S315020831B0CC3CA2FB0364013002FB0C4201FB032157
S315020831C0721B71F133323246F3D35DF804BBF0BD9C
S315020831D0CDCCCCCC34333333F0B503AF2DE9000F65
S315020831E089B08A461A21B0FBF1F2054602FB01FBB9
S315020831F02C4800EB02105D4502D100F0D3F84DE0F1
S3150208320006A9294A0091A5EB0B0152F8314002EBB7
S31502083210C101D0E902234E6801680391416820463C
S315020832200291314600F0D5F8804604A8DDE902325B
S31502083230894600902046314600F0CBF80E46DDE975
S3150208324004120390002018EB010859EB020940F119
S315020832500000012801D100F09DF82846FFF796FFE5
S3150208326004465846FFF792FF241A03983146424607
S315020832704B46009400F0CEF81E226FF0030302EAD2
S31502083280450203EA9503094DEB5800F093F800F05E
S3150208329099F8009400F0BEF8CAE9020109B0BDE83F
S315020832A0000FF0BD90400802604108023042080251
S315020832B0F0B503AF2DE9000F89B08A4605461930E5
S315020832C01A21B0FBF1F2304802FB01F600EB0210BC
S315020832D0AE4202D100F066F851E006A92B4A0091E7
S315020832E0711BD0E9009B52F8318002EBC101D0E98B
S315020832F002234C684046214600F06BF8CDE90210DD
S3150208330004A8B9F101026BF1000300904046214678
S3150208331000F05FF88B46DDE903310446002011EB25
S315020833200308059A029952EB010940F100000128A7
S3150208333001D100F02FF83046FFF728FF0646284647
S31502083340FFF724FF361A2046594642464B46009650
S3150208335000F060F86FF003030D4C03EA95031E2292
S3150208336002EA4502E35800F025F8013041F100016E
S3150208337000F028F8009600F04DF8CAE9020109B0F3
S31502083380BDE8000FF0BD00BF88420802604108028E
S3150208339078430802DDE906010130069041F1000092
S315020833A00790704790E80E00C0688AE80E00CAF8CF
S315020833B00C00704723FA02F202F00302801841F168
S315020833C000017047DDE90623CAE90001404649467D
S315020833D07047F0B503AF4DF804BDA3FB0145D7F816
S315020833E008E0A2FB0116A2FB00C25218744145F17D
S315020833F0000511462646E3FB0016A3FB00038018C8
S3150208340054EB030045F10000CEE9006060465DF822
S3150208341004BBF0BDF0B503AF2DE9000BD7F8088061
S31502083420164689460546C8F140023046194600F056
S3150208343029F806460C4628464946424600F075F8DB
S3150208344030432143BDE8000BF0BD0A46002100F0D7
S315020834500AB8D0B502AF00239A4203D0CC5CC45452
S315020834600133F9E7D0BD00239A4208BF7047C15419
S315020834700133F9E7034613F8012B002AFBD1181A80
S3150208348001387047930641BFA2F1200100FA01F103
S3150208349000207047002A1FBF9140C2F1200320FA7C
S315020834A003F3194318BF904070470246C0F3C75149
S315020834B06FF3DF5239B1FF2923D14FEAD20C5207F3
S315020834C040F2FF7329E022B380B5B2FA82F1C1F164
S315020834D00B03B1F10B0E22FA03F358BF02FA0EF3ED
S315020834E083F4801C40F28933BEF1000FA3EB01037B
S315020834F001F1150102FA01F258BF0022BDE8804027
S315020835000BE0C30D4FEAD20CDBB2520703F5607328
S3150208351003E000224FF0000C002300F0004040EACE
S31502083520035040EA0C0110467047930641BFA2F1C8
S31502083530200021FA00F000217047002A1FBFD04060
S31502083540C2F1200301FA03F3184318BFD1407047AA
S315020835502DE9F04FDDF824A0844689B1D2B183B3B0
S31502083560B1FA81F4B3FA83F52C1B202C54D3BAF1A1
S31502083570000F18BFCAE900C100200021BDE8F08F7C
S31502083580E3B30021BAF1000F4CD00020CAE900C10A
S31502083590BDE8F08F002B48D000285ED05C1E23427F
S315020835A069D1BAF1000F1CBF04EA0100CAE900C0DA
S315020835B093FAA3F0B0FA80F021FA00F00021BDE8F0
S315020835C0F08F541E224233D1BAF1000F1EBF0023D8
S315020835D00440CAE90043012A00F0FB8092FAA2F2EB
S315020835E04F00B2FA82F202F01F03D140D8401F23DD
S315020835F0934307FA03F31843BDE8F08FB0FBF2FCD6
S31502083600BAF1000F1EBF0CFB12000021CAE9000125
S3150208361000216046BDE8F08F04F1010CBCF1200FD1
S3150208362010D032E00020BDE8F08F6046BDE8F08F8A
S31502083630B1FA81F7B2FA82F6F71B07F1210CBCF14F
S31502083640200F37D14FF0000E4FF0200C0C464FF0EA
S315020836500009BCF1010F27D04AE0B1FBF3FCBAF12D
S31502083660000F1EBF0CFB13100021CAE9001000212F
S315020836706046BDE8F08FB1FA81F4B3FA83F52C1BE4
S315020836801F2CBFF474AF04F1010C84F01F0620FA54
S315020836900CF501FA06F42C4321FA0CFEB0404FF061
S315020836A00009BCF1010F23D14FF000085FEACC7183
S315020836B061D17DE0BCF11F0F07D8CCF1200620FAB4
S315020836C00CF401FA06F52C43E6E7CCF14006ACF118
S315020836D020044FF0000E01FA06F720FA04F52F43EC
S315020836E000FA06F921FA04F43846BCF1010FDBD0D8
S315020836F02CF001074FF0000A4FEA4E0141EAD47551
S31502083700640044EAD074E9434000E643B61841EB44
S31502083710030BA61A65EB0301BBF1000F58BF294636
S3150208372058BF26464900740041EAD67144EAD07663
S31502083730B41A40EAD9706FEA060561EB030EAD18B2
S315020837404FEA40006FEA01055D415CBF8E4634468A
S315020837504AEA4901023F4FEAD57840EAD1704FEA70
S31502083760410141EADB79C246C6D1DDF824A0002729
S315020837705FEACC711CD067004FEA4E0147EAD07760
S3150208378041EAD471BC1A4FEA400061EB030EFD43CD
S3150208379052196FEA010656EB03025CBF8E463C4697
S315020837A040EAD9700027D10F48EA4902884691466D
S315020837B04FEAD97141EA40004FEA490240EA070155
S315020837C022F00100BAF1000F48EA000C18BFCAE954
S315020837D0004E6046BDE8F08F40B584B002AE009652
S315020837E0FFF7B6FE029A039B04B040BD1B5B731B30
S315020837F05B25643B2564481B5B324B0A526571752F
S3150208380065737420696E7465727275707420666168
S31502083810696C1B5B750020082008000D0A204661AA
S31502083820696C757265204F70656E20495043312068
S31502083830001B5B25643B2564481B5B324B5265744F
S3150208384075726E6564204572726F7220436F646585
S315020838503A203078257820200D0A000D0A4950436F
S3150208386020446F206E6F742070726573656E740DD6
S315020838700A00696E6600736D656D5F696E707574B0
S315020838805F62757379001B5B324A1B5B48001B5BE0
S31502083890731B5B25643B2564481B5B324B5B4552B5
S315020838A0525D3A20496E76616C696420736571755A
S315020838B0656E63652E20506C656173652073657449
S315020838C0205254432063616C656E646172204461C0
S315020838D0746520616E642054696D65204669727349
S315020838E0740D0A1B5B7500736D656D5F6F75747079
S315020838F075745F62757379001B5B393B31481B5BD4
S31502083900314A001B5B731B5B25643B2564481B5BC2
S31502083910324B5B494E464F5D546865207265636556
S315020839206976657220627566666572206F7665725B
S31502083930666C6F7765642E506C656173652070726C
S3150208394065737320656E746572206B657920616E86
S315020839506420696E70757420616761696E0D0A1B51
S315020839605B75001B5B731B5B25643B2564481B5B0D
S31502083970324B54656D70657261747572653A2025AD
S315020839802E32662064656720431B5B75001B5B2528
S31502083990643B25644853657474696E672043616C99
S315020839A0656E64617220416C61726D20666F722069
S315020839B05254432E0D0A456E746572207365636F01
S315020839C06E64732076616C75652028466F726D6128
S315020839D0743A2053532920666F72207768696368A0
S315020839E02072656375727369766520616C61726DA2
S315020839F02068617320746F206265207365742E20B7
S31502083A000D0A506C6561736520696E707574207352
S31502083A1065636F6E64732076616C756520696E20C6
S31502083A207468652072616E6765206265747765657C
S31502083A306E20303020616E642035392E0D0A5361AE
S31502083A406D706C6520496E7075743A2033350D0AAF
S31502083A50006970635F696E6974000D0A20466169C0
S31502083A606C757265204F70656E2049504330200090
S31502083A700D0A5468652073656D6170686F726520FA
S31502083A806E6F742070726573656E740D0A001B5B27
S31502083A90731B5B25643B2564481B5B324B5B4552B3
S31502083AA0525D3A20496E76616C696420416C617296
S31502083AB06D20496E7075742E1B5B75006E616E0003
S31502083AC01B5B25643B25644853657474696E6720DD
S31502083AD0525443204461746520616E642054696DB2
S31502083AE065200D0A0D0A456E746572204461746577
S31502083AF020616E642054696D6520696E2044443ADB
S31502083B004D4D3A595959592048483A4D4D3A535309
S31502083B1020666F726D61742E0D0A53616D706C6545
S31502083B2020496E7075743A2032353A30363A323058
S31502083B3032352031353A32353A3035200D0A3C3C99
S31502083B4020001B5B25643B2564481B5B324B5B45A7
S31502083B5052525D20496E2046756E6374696F6E3ADD
S31502083B6020257328292C202573001B5B25643B25F9
S31502083B70644831203A202053657420525443204326
S31502083B80616C656E646172204461746520616E645D
S31502083B902054696D652E0D0A32203A202053657429
S31502083BA02052544320616C61726D20746F20746FC9
S31502083BB067676C6520746865204C454420617420EB
S31502083BC061207370656369666963207365636F6EE6
S31502083BD0642E0D0A33203A202053746F702F5374C3
S31502083BE0617274205363616E2054656D70657261EB
S31502083BF0747572650D0A5573657220496E7075740F
S31502083C00203A20200D0A001B5B731B5B25643B25AB
S31502083C1064481B5B324B5B4552525D3A20496E76CD
S31502083C20616C696420696E7075742E1B5B75002859
S31502083C306E756C6C2900000101000000040C00007E
S31502083C409D04080200000000C4B00E22383C080297
S31502083C50EC3C080200000000DFFF00000000000044
S31502083C6000000000E0B00E22543C0802EC3C0802B8
S31502083C7000D4D4D430A00E22703C0802FCB00E2226
S31502083C80743C0802083D080201D4D4D440A00E228E
S31502083C90883C080204B10E228C3C0802083D080240
S31502083CA00001000050A00E220F00FFFF00000001D5
S31502083CB001000000080200000200020102020203DB
S31502083CC07C3C0802943C08024907080200000000EE
S31502083CD0A03C0802000000000000000000000000EE
S31502083CE0FC02FD02FE02FF025C00D4D4591008024F
S31502083CF0F110080201110802091108021911080235
S31502083D00020403040404D4D4D5130802B91408021D
S31502083D1045150802E5150802011608021D160802CD
S31502083D20211608022516080279160802A91608029B
S31502083D30AD1608020000006C0000006C0000008846
S31502083D4000000088000000740000007460A00E22C3
S31502083D5060A00E220B0000006C3D0802190000004C
S31502083D60F03D080204000000343D08020000006C21
S31502083D700000006C0001000D0000006C0000006CE1
S31502083D800001000D000000880000008800010008FC
S31502083D900000008800000088000100080000007486
S31502083DA0000000740001000A00000074000000749C
S31502083DB00001000A000000000000000000000006E2
S31502083DC000000020000000200000000760A00E226C
S31502083DD060A00E220000000390B00E22C4B10E228B
S31502083DE000000003C4B10E22C8B10E22000000036F
S31502083DF00000006C0000006C000000980001090D2C
S31502083E000000006C0000006C0000007C00010B0D35
S31502083E100000006C0000006C000000270001020D83
S31502083E200000006C0000006C800008020001010D11
S31502083E3000000088000000880000009800010908B8
S31502083E4000000088000000880000007C00010B08C2
S31502083E500000008800000088000000270001020810
S31502083E60000000880000008880000802000101089E
S31502083E700000007400000074000000980001090A9E
S31502083E8000000074000000740000007C00010B0AA8
S31502083E900000007400000074000000270001020AF6
S31502083EA00000007400000074800008020001010A84
S31502083EB0000000000000000000000098000109064A
S31502083EC000000000000000000000007C00010B0654
S31502083ED000000000000000000000002700000206A3
S31502083EE00000000000000000800008020000010631
S31502083EF000000020000000200000009800010907C9
S31502083F0000000020000000200000007C00010B07D2
S31502083F100000002000000020000000270000020721
S31502083F2000000020000000208000080200000107AF
S31502083F3014A00E2214A00E22000000980001090304
S31502083F4014A00E2214A00E220000007C00010B030E
S31502083F5014A00E2214A00E2200000027000002035D
S31502083F6020A00E2254A00E2290000802000001038F
S31502083F70C4B10E22C4B10E22C40008020000010315
S31502083F800100020008001000002020202020202026
S31502083F9020202828282828202020202020202020E9
S31502083FA020202020202020202088101010101010F9
S31502083FB01010101010101010100404040404040445
S31502083FC004040410101010101010414141414141DF
S31502083FD001010101010101010101010101010101C1
S31502083FE001010101101010101010424242424242D1
S31502083FF00202020202020202020202020202020291
S315020840000202020210101010200000000000000038
S315020840100000000000000000000000000000000090
S315020840200000000000000000000000000000000080
S315020840300000000000000000000000000000000070
S315020840400000000000000000000000000000000060
S315020840500000000000000000000000000000000050
S315020840600000000000000000000000000000000040
S315020840700000000000000000000000000000000030
S31502084080000000000000000000D4D4D4D4D4D4D454
S315020840900000000000000000000000000000001000
S315020840A00000000000000000B9340332B7F4AD1472
S315020840B010DB1AB30892540E0D307D951447BA1ABE
S315020840C066088F4D26ADC66DF598BF85E2B74511D0
S315020840D0CA96853D92BD1DEBFCA11860DCEF52160F
S315020840E03C92AE220BB8C1B4839D2D5B0562DA1CE5
S315020840F0304C7E8F4E8BB25B16F4529F8B56A512AE
S31502084100FBD4827643ED8AF08FE7F93115651918E3
S3150208411050F19BD94A13EEB4284CF0A686C1251F46
S31502084120035FC270CB9E4916E642889C44EB201474
S31502084130B0650836AD6EA58585F0CA14E2FD031A88
S315020841400B899979D5B13D09D8DA973A35EBCF106B
S31502084150AC363F5E73BB38CF3E6752FA44AFBA15E8
S315020841600100000000000000050000000000000039
S3150208417019000000000000007D0000000000000099
S315020841807102000000000000350C0000000000006B
S31502084190093D0000000000002D310100000000006A
S315020841A0E1F505000000000065CD1D0000000000D5
S315020841B0F902950000000000DD0EE9020000000089
S315020841C0514A8D0E000000009573C2480000000097
S315020841D0E941CC6B010000008D49FD1A0700000079
S315020841E0C16FF28623000000C52EBCA2B1000000F2
S315020841F0D9E9AC2D780300003D9160E4581100001E
S3150208420031D6E275BC560000F52E6E4DAEB10100F0
S31502084210C9EA268367780800ED95C28F055A2A00EF
S31502084220A1EDCCCE1BC2D30025A4000A8BCA220458
S31502084230000000000000000000000000000000006E
S315020842400000004095596959555554551555555606
S3150208425004051541105455404551554440455044AE
S3150208426050555545004000404004449665555655FC
S31502084270454045545141154055915555555540515E
S315020842800501000000000000010000000000000017
S315020842900000000000000020345065C05FC9A65225
S315020842A0BB13CBAEC440C21806C8DF7100D5A87CC2
S315020842B0F56F0FDA58FC27136E4756357D242065AD
S315020842C002C7E768E48CA41DE9E60268D7CD39611E
S315020842D07977FCC2405BEF16798CDE43FFA751F96A
S315020842E091F3B278F5BDBE11E857E9D6E8BEE87B88
S315020842F0B054AC8F848D751BEA23A499E9F9D38B44
S31502084300B7A3714061DA3E15CEE33ECB73F948088E
S315020843108C97B427D51B7010A2BFEFB9EB8532155F
S315020843204DB44DB49BBB6F1996B6076CF8E7EEAD64
S3150208433036D9B4F59135AE13222218AF4E6A684DB6
S3150208434091DAAA3D4F40741E9FBD9EE006A1C09811
S3150208435057C2A7FDA40E90170E7D497173E3208FED
S31502084360B220D87605143B12853D7434811343B0C6
S31502084370AD297A5F27F4351C54455454455505042E
S315020843800010041014044000000001405555154160
S3150208439054040000440001000000004041000044AB
S315020843A050444550540055555455655100400040F7
S315020843B001000001000501001154515154555505DB
S315020843C000000000000000000000000000000006D7
S315020843D0362E302E30004275696C742077697468FF
S315020843E02052656E6573617320416476616E6365FA
S315020843F06420466C657869626C6520536F667477CB
S31502084400617265205061636B6167652076657273B8
S30F02084410696F6E20362E302E30003A
S70502081A6571
