S01E0000656B5F72613870315F6475616C636F72655F435055302E7372656306
S3150200000000100022CB35000233340002D93500023B
S31502000010D9350002D9350002D9350002D935000298
S31502000020000000000000000000000000D9350002B8
S31502000030D935000200000000D9350002D935000288
S315020000408B230002632400021D250002D72500022D
S31502000050A92600023D200002E52100027B270002BC
S3150200006033280002EB280002A32900025B2A0002C1
S31502000070132B0002E72B0002952C0002432D0002EF
S31502000080F12D00029F2E0002A91600020915000298
S30D02000090091500027B150002AE
S315020000981000000000000000017A5200017C0E01E7
S315020000A81B0C0D001000000018000000184F00007D
S311020000B810000000000000000000000024
S315020000D08268511E07290DD80FF20400DFE801F0ED
S315020000E004242A192A2A2A1E45F61B00C0F20020D9
S315020000F003F0D5B9B2F5803F18BF704741F232011D
S315020001004068C2F20021087041F23300C2F20020B8
S315020001100EE041F23100C2F2002009E045F61A0073
S31502000120C0F2002003F0BBB941F23000C2F2002057
S3150200013001210170704780B56F4696B006A840212E
S3150200014004F02FFF42F2000040F64801C2F20E20F0
S31502000150002427F8424C04F024FF45F67000C0F252
S315020001600020D0E9000101F020FA70B945F65400EA
S31502000170C0F20020D0E9000101F017FA28B940F2D6
S31502000180E940C0F2002003F093F94FF244004FF029
S315020001900271C4F20000016004744AF20151018442
S315020001A041F23100C2F20020017809B930BFFBE703
S315020001B000F01FFA00F07BFB42F2000041F2300829
S315020001C041F2360541F2330641F2581441F2320940
S315020001D045F2DB5BC2F20E204FF0000AC2F20028A3
S315020001E0C2F20025C2F20026C2F200246FF03F0CD2
S315020001F0C2F20029C0F2002B00F60500039000208F
S315020002000290049007E041F23500C2F20020007825
S31502000210002840F0038198F8000000284BD006AC75
S3150200022040222046039904F0C0FE41F2A4000221B6
S31502000230C2F2002001F012FA204600F01EFA50B176
S315020002400B21012203281ED145F24550C0F200209F
S3150200025000F063F927E042F200000121C2F20E200B
S3150200026080F8041845F61A00C0F2002003F017F9C8
S3150200027045F26A600B210122C0F2002000F04DF91E
S3150200028000F080FA0FE045F2973045F29F53C0F234
S315020002900020009045F27570C0F20023C0F20020E3
S315020002A000F03BF900BE41F258146FF03F0CC2F267
S315020002B0002488F800A02878002868D041F2380483
S315020002C041F28C00C2F20024C2F20020214600F064
S315020002D083FD80B145F2C22045F29F53C0F2002051
S315020002E0009045F275700B210122C0F20020C0F287
S315020002F0002300F012F9204600F09EF96069012100
S31502000300D4E9033CCDE900C045F276501E22C0F284
S31502000310002000F002F9D4E900C0CDE9000C45F254
S315020003203940A36802211E22C0F2002000F0F5F82F
S3150200033041F23400C2F20020007801281DD104984F
S3150200034008B900F043FBA7F1420000F07CFB37F846
S31502000350421C41F2A400C2F2002001F076F950B12B
S315020003600120049045F262400B210122C0F20020D6
S3150200037000F0D3F801E00120049041F258144FF046
S31502000380000AC2F200246FF03F0C85F800A041F289
S315020003903400C2F20020007890B9049981B100F0CD
S315020003A034FB45F22D7003210122C0F2002000F039
S315020003B0B4F80020049045F2AA50C0F200200BE0E7
S315020003C0012813D1049888B900F000FB012004909B
S315020003D045F20B30C0F200200A21012200F09DF8FE
S315020003E041F258146FF03F0CC2F200243078002814
S315020003F03FF409AF99F8000000F0EAF999F80030E5
S315020004000B210122584600F088F841F258146FF089
S315020004103F0CC2F2002486F800A0F4E645F65470BA
S31502000420C0F20020018800295DD04068EFF31082F7
S31502000430012383F31088236853B940F6145C4023E2
S31502000440C4F2400C8CF800A08CF800306FF03F0C20
S31502000450236840F6000901332360029B82F3108869
S3150200046083F00103029343F0040241F001E043F6F4
S31502000470FA7BD1B2C4F24009CFF6FE7B30F8022BEA
S31502000480D3B20CEA920202EB830252F8093003EA73
S315020004900B030B4342F809300FF011C0EFF3108043
S315020004A0012181F31088216811B121680139216087
S315020004B0216841F2320945F2DB5BC2F20029C0F241
S315020004C0002B39B940F614518022C4F2400181F85A
S315020004D000A00A7080F3108841F23500C2F20020B3
S315020004E080F800A097E6FEE741F23400C2F200204F
S315020004F0017801295FEA0F9101707047FFF71BBE71
S31502000500022818BF704741F2840045F69841C2F2AC
S315020005100020C0F2002101F027B983B0F0B503AF85
S315020005202DE90007ADF60C0D044607F1080003ADF0
S315020005300EC04FF40061284604F033FD07F10802AD
S3150200054028462146029203F0CFF9002844D403A894
S3150200055004F03CFD002841D045F61A050446C0F2D7
S315020005600025284602F090FF45F24C6A45F275785E
S3150200057045F2E34940F27A56C0F2002AC0F2002858
S31502000580C0F2002990B1B04205D00828FAD1284617
S3150200059002F07AFFF6E70B21012240464B46CDF8E0
S315020005A000A0FFF7BAFF40F27A50EBE742F20005ED
S315020005B003A9C2F20E254FF40062284604F0F5FCA8
S315020005C041F2A4000121C2F20020C5F8004801F060
S315020005D045F828B100BE04E0032002E0172000E03F
S315020005E000200DF60C0DBDE80007BDE8F04003B093
S315020005F0704780B56F4682B041F28C0045F6240101
S31502000600C2F20020C0F2002100F057FA90B145F282
S31502000610757045F29D7345F2E83CC0F20020C0F2C7
S3150200062000230B210122C0F2002CCDF800C0FFF7F7
S3150200063074FF00BE02B080BDD0B502AF82B00446E0
S3150200064090B945F2757045F23D3345F2CD6CC0F274
S315020006500020C0F200230B210122C0F2002CCDF8AB
S3150200066000C0FFF75AFF00BED4E90401013001F2CF
S315020006706C71C4E9040102B0D0BDF0B503AF4DF808
S3150200068004BD82B00446E8B945F2757545F2E163E8
S31502000690C0F2002545F2CD66C0F200230B210122ED
S315020006A02846C0F200260096FFF737FF45F225637B
S315020006B00B21C0F200230122284600BE0096FFF756
S315020006C02CFF00BE207861784FF47A7600EB80002A
S315020006D001EB400041F25C01C2F20021A0F5047078
S315020006E0C860E078227900EB800002EB4000A0F2BD
S315020006F011200861A079227AE3797043642602EB1D
S31502000700820213FB0600637A00EB42004DF2BC72D2
S315020007101844801A4861E07AA27B237B657CE67BDB
S3150200072000EB800002EB820203EB4000A0F50470AE
S3150200073006EB420205EB8503A67C8860A2F50470EF
S31502000740486006EB4300A0F50470086041F28C0095
S31502000750C2F2002000F019FA80B941F23801C2F261
S315020007600021D1E90423013203F26C73C1E90423A7
S3150200077041F28001C2F2002101220A7002B05DF844
S3150200078004BBF0BD80B56F4682B041F28C000E21EB
S31502000790C2F2002000F01BFE88B145F2757045F2E8
S315020007A01D4345F2DF2CC0F20020C0F200230B21CC
S315020007B00122C0F2002CCDF800C0FFF7AEFE02B057
S315020007C080BDD4D4D4D4D4D4D4D4D4D4D4D4D4D44C
S315020007D0B0B502AF9CB00FAC0546201D302104F027
S315020007E0E0FB02A8342104F0DCFB41F28000C2F2F5
S315020007F00020007801283AD121A021460F9590EDDC
S31502000800001F0020ADF8640041F28C0084ED240F35
S31502000810C2F2002000F0B6FB80B145F2757045F2D7
S31502000820447345F2F445C0F20020C0F200230B21C6
S315020008300122C0F200250095FFF76FFE41F28C00FF
S3150200084002A9C2F2002000F043FD80B145F27570A4
S3150200085045F2447345F2AE65C0F20020C0F20023B1
S315020008600B210122C0F200250095FFF756FE1CB0AF
S31502000870B0BD00BF00BF00BF00BF00BF00BF00BFCA
S31502000880010000000000000000000000000000005F
S31502000890007841F2350141F23602C2F20021C2F27B
S315020008A00022002851EA0280012101707047F0B54A
S315020008B003AF4DF804BD82B041F2DC0045F6F811F3
S315020008C0C2F20020C0F2002101F030F888B145F2F0
S315020008D0757045F2593345F26636C0F20020C0F211
S315020008E000230B210122C0F200260096FFF715FE17
S315020008F000BE41F2DC0045F6B401C2F20020C0F2AD
S31502000900002101F045F988B145F2757045F2593377
S3150200091045F25B76C0F20020C0F200230B210122D1
S31502000920C0F200260096FFF7F8FD00BE002007F889
S31502000930110C41F2DC000021C2F2002001F01CFB86
S3150200094020B145F2AB46C0F200261CE041F2DC04BF
S315020009500226C2F20024A7F111052046294601F01B
S31502000960E2FA60B917F8110C18B1002E06F1010669
S31502000970F3D138B345F2F766C0F2002603E045F23A
S31502000980F876C0F2002645F2757045F2A673C0F2FB
S315020009900020C0F200230B2101220096FFF7BDFDC5
S315020009A045F2757045F2593345F2BC76C0F2002025
S315020009B0C0F200230B210122C0F200260096FFF7A7
S315020009C0ACFD00BE02B05DF804BBF0BD80B56F465B
S315020009D082B041F2DC00C2F2002001F081FA90B14D
S315020009E045F2757045F2C64345F2135CC0F200202B
S315020009F0C0F200230B210122C0F2002CCDF800C068
S31502000A00FFF78BFD00BE02B080BD80B56F4682B097
S31502000A1041F2DC00C2F2002001F06DFA88B145F223
S31502000A20757045F2D54345F2B73CC0F20020C0F2DC
S31502000A3000230B210122C0F2002CCDF800C0FFF7E3
S31502000A406CFD02B080BDD0B502AF82B0044690B94B
S31502000A5045F2757045F23E6345F2CD6CC0F2002058
S31502000A60C0F200230B210122C0F2002CCDF800C0F7
S31502000A70FFF753FD00BE41F2DC006421C2F2002002
S31502000A80224601F061FA80B145F2757045F23E6385
S31502000A9045F29244C0F20020C0F200230B2101224B
S31502000AA0C0F200240094FFF738FD02B0D0BD80B535
S31502000AB06F46FFF723FD002080BD00284FF001029C
S31502000AC018BF002901D110467047F0B503AF4DF8A3
S31502000AD0048D45F243460268C0F25206B24201D183
S31502000AE00E224CE041604A69C2608A694261002274
S31502000AF002610A78012A05D14A68083AB2F5FB7FF3
S31502000B000CD909E08A681378012B02D15378022B9B
S31502000B1002D052683F2A01D9032230E04EF2004841
S31502000B200022CEF20008027204460D4600F09BFC3B
S31502000B3095F90F1041F26010C2F20020002906D486
S31502000B40AA7BC9B2120108F8012040F8214095F9A2
S31502000B500D10002906D42A7BC9B2120108F8012019
S31502000B6040F8214095F91110002906D42A7CC9B211
S31502000B70120108F8012040F82140002226605DF8A3
S31502000B80048BBDE8F0401046704700284FF0010282
S31502000B9018BF002901D11046704745F24343026847
S31502000BA0C0F252039A420AD10A683B2A05D84A6819
S31502000BB03B2A02D88A68172A04D9032070470722DB
S31502000BC010467047D1F814C0ACF1C80212F1640F96
S31502000BD04FF00302DFD30B69002BDCD40B2BDADCDC
S31502000BE0F0B503AF4DF804BD45F6D0425C1CC0F229
S31502000BF000220CF00306D1F80CE0D55C84F0020268
S31502000C00324308BF1D25BEF1010F4FF00302C0F2A9
S31502000C10DD80AE4500F2DA800D22032C38BF03F1E7
S31502000C200D0404FB02F240F26B7353EA33934CF663
S31502000C30CD440D3292B26344624303EB0E0606EBD9
S31502000C40930342F2934603EB92420F3A93B27343F3
S31502000C50A2EB1346B6B2760806EB13434FF6FF76BF
S31502000C609B08A3EBC3031A444FF0FF33324213FA35
S31502000C7082F542F22403C4F2200308BF06258D61E1
S31502000C801A7802F0FE021A701A78D207FCD10E68A0
S31502000C90CD22F5B25543ED0A05EB8504A6EB4406D3
S31502000CA046EA051603F8226C4E68F5B25543ED0A7C
S31502000CB005EB8504A6EB440646EA051603F8206C06
S31502000CC08E68F5B25543EC0A04EB8404A6EB44069F
S31502000CD0302404EAD5152E4303F81E6C8E69F5B24C
S31502000CE05543ED0A05EB8504A6EB440646EA0516CE
S31502000CF003F81C6CCE68F5B25543ED0A05EB850484
S31502000D00A6EB440646EA051603F81A6C0E69013686
S31502000D10F5B25543ED0A05EB8504A6EB440646EA11
S31502000D20051603F8186C49696439CEB27243D20AC1
S31502000D3002EB8206A1EB460141EA0211C9B223F88F
S31502000D40161C40680178C9BB82681478517890787D
S31502000D5052681E78C6F30016B44212D000269E725E
S31502000D609E7A0EB12FF005C01E7804F0010506F03A
S31502000D70EF0646EA05161E701E78C6F30016A64250
S31502000D80FAD1012C11D11E78C6F34016B1420CD00D
S31502000D901E7801F0010506F0DF0646EA45161E70CA
S31502000DA01E78C6F340168E42FAD102F03F0141EA9E
S31502000DB080109872C0B2997A8142FCD118780022CA
S31502000DC040F0010018701878C007FCD05DF804BB2B
S31502000DD0BDE8F0401046704700284FF0010218BFE8
S31502000DE0002901D11046704745F243430268C0F21A
S31502000DF052039A4240F0BC80F0B503AF4DF8048D21
S31502000E00426892F91120002A00F1B580D2B21C2361
S31502000E104EF2001C03EAD203CEF2000C02F01F02CD
S31502000E20012553F80C3005FA02F213EA020E42F2D9
S31502000E302203C4F2200323D11A7842F002021A7066
S31502000E401A789207FCD542684CF20034C4F20004C8
S31502000E50012692F9112054F8225025F4803544F8DF
S31502000E60225054F82240540902F01F02BFF35F8F4A
S31502000E700CEB840506FA02F2C5F880214CF8242010
S31502000E804FF000084FF0FF34642580F8088013F80D
S31502000E90206C320906F00F0602EB820206EB4202D2
S31502000EA0D2B20A6013F81E2C160902F00F0206EBE4
S31502000EB0860602EB4602D2B24A6013F81C2CC2F333
S31502000EC0011602F00F0246EA860602EB46028A6025
S31502000ED013F81A2C160902F00F0206EB860602EB2D
S31502000EE04602D2B28A6113F8182C160902F00F02D2
S31502000EF006EB860602EB4602D2B2CA6013F8162C3D
S31502000F00160902F00F0206EB860602EB460254FAB7
S31502000F1082F20A6133F8142CD6B202F00F023609B5
S31502000F2006EB860602EB460255FA82F24A61027A1D
S31502000F300AB12FF057C0BEF1000F17D1197801F090
S31502000F40FD01197019788907FCD44068012290F9CD
S31502000F501100410900F01F0002FA00F00CEB8101BA
S31502000F60C1F88000BFF34F8FBFF36F8F002203E0FB
S31502000F700722104670470B225DF8048BBDE8F0404D
S31502000F801046704700284FF0010218BF002901D110
S31502000F901046704745F243430268C0F252039A4232
S31502000FA040F08480F0B503AF2DE9000B81B04268B2
S31502000FB092F90D30002B7CD491F824201AB10A68DC
S31502000FC03B2A00F2A78091F825201AB14A683B2AEB
S31502000FD000F2A08091F826201AB18A68172A00F238
S31502000FE0998091F8295091F82820002D63D0002A83
S31502000FF066D091F82720002A6AD0D1F814E0AEF123
S31502001000C80212F1640F4FF00302C0F084800C692B
S31502001010002C00F180800B2C7DDC45F6D042631C4F
S31502001020C0F200220EF00306D1F80CC0155D83F063
S315020010300202324308BF1D25BCF1010F4FF0030225
S3150200104069DBAC4567D80D22032B38BF04F10D03CB
S3150200105003FB02F240F26B7353EA33934CF6CD4430
S315020010600D3292B27344624303EB0C0606EB930312
S3150200107042F2934603EB92420F3A93B27343A2EBC8
S315020010801346B6B2760806EB13434FF6FF769B0875
S31502001090A3EBC3031A444FF0FF33324213FA82F32F
S315020010A008BF06238B614068437B3BE0072210465C
S315020010B070470B222FE042B10A690B2A2AD80FE0A9
S315020010C04869C83810F1640F24D3C8681F2411E098
S315020010D00A690B2A1ED84869C83810F1640F19D359
S315020010E0012AC86801D11D2404E045F6D046C0F2A3
S315020010F00026B45C91F8272032B101284FF0030292
S3150200110009DBC0B2A04206D891F82A0050B188691C
S31502001110062807D9032201B0BDE8000BBDE8F0405E
S31502001120104670475BB24EF2001C4FEA531ECEF2D7
S31502001130000C03F01F0001240CEB8E0804FA00F9E0
S31502001140C8F88090BFF34F8FBFF36F8F91F824409A
S315020011506CB10D68CD22EEB27243D20A02EB820660
S31502001160A5EB460545EA021242EAC41200E0002255
S3150200117042F2220407F8192CC4F2200417F8192C9B
S3150200118004F8122C91F825506DB14A68CD20D6B2DA
S315020011907043C00A00EB8006A2EB460242EA001048
S315020011A040EAC51000E0002007F8190C17F8190CE0
S315020011B004F8100C91F826506DB18868CD26C2B29B
S315020011C07243D20A02EB8206A0EB460040EA021004
S315020011D040EAC51000E0002007F8190C17F8190CB0
S315020011E004F80E0C91F82A0018B1087E40F080002F
S315020011F000E0002007F8190C17F8190C04F80C0C7B
S3150200120091F827506DB1C868CD26C2B27243D20A90
S3150200121002EB8206A0EB460040EA021040EAC51045
S3150200122000E0012007F8190C17F8190C04F80A0C4B
S3150200123091F8285075B10869CD260130C2B27243C1
S31502001240D20A02EB8206A0EB460040EA021040EA0E
S31502001250C51000E0002007F8190C17F8190C04F85D
S31502001260080C91F8290060B14869CD256438C2B2EC
S315020012706A43D20A02EB8205A0EB450040EA02105D
S3150200128000E0002007F8190C17F8190C24F8060CD0
S3150200129091F82900C00104F8040C207840F00100FE
S315020012A020702078C007FCD04CF200300022C4F235
S315020012B0000050F8231021F4803140F8231050F832
S315020012C02300BFF35F8FC8F880914CF82E9022E777
S315020012D0024600284FF0010018BF002900D17047CE
S315020012E0106845F24342C0F2520290426DD142F278
S315020012F0100CC4F2200C9CF80020C2F3021302F078
S315020013000F0003EB830300EB43000860D00981F86A
S3150200131024009CF80200C0F3021200F00F03C00979
S3150200132081F8250002EB820203EB42024A609CF836
S315020013300400C0F3021200F00F03C00981F8260070
S3150200134002EB820203EB42028A609CF80600C0F3BB
S31502001350021200F00F03C00981F82A0002EB820292
S3150200136003EB42028A619CF80800C0F3021200F005
S315020013700F03C00981F8270002EB820203EB420247
S31502001380CA609CF80A00C0F3021200F00F03C009FB
S3150200139081F8280002EB820203EB4202013A0A615B
S315020013A0BCF80C00C2B200F00F00120902EB820276
S315020013B000EB4200642252FA80F048619CF80E006B
S315020013C0C00981F8290000207047072070470028CD
S315020013D043D045F243430268C0F252039A423ED1D9
S315020013E0426892F90F20002A3BD442F22202C4F24A
S315020013F02002137803F00F0343EA011313701378E4
S31502001400B1EB131FFBD1117841F004011170117871
S315020014104907FCD540684CF20031C4F200014EF295
S31502001420001C90F90F00CEF2000C51F8202022F495
S31502001430803241F8202051F82010410900F01F00A7
S3150200144001220CEB810302FA00F0BFF35F8FC3F8AF
S3150200145080014CF8210000207047012070470720C8
S3150200146070470B207047F0B503AF4DF804BD054633
S31502001470406842F224060C46C4F220060078012196
S315020014803071C82001F08AFF307800F0FE0030701B
S315020014903078C007FCD168680078012803D10020A3
S315020014A0F080606830810020307096F900000028D4
S315020014B0FBD4307840F00200307030788007FCD4DC
S315020014C0002006F8020C16F8020C08B12FF005C827
S315020014D0307840F04000307030784006FCD54FF04E
S315020014E0030E002006F11C0111F8102002F07F0203
S315020014F001F8102011F91020002AFBD401300FF058
S315020015000DC85DF804BBF0BDB0B502AF82B0EFF313
S31502001510038041F260111038C2F2002144B251F840
S315020015202450E968D9B16968C0B2497B88425FEA4A
S315020015300F9128694FEA410120B1D0E90023CDE994
S31502001540002300E06846017069694160E9688847DE
S31502001550286900281CBFDDE90012C0E900124CF21E
S315020015600030C4F2000050F8241021F4803140F813
S31502001570241050F8240002B0B0BDEFF303804FF000
S31502001580704101EB006041F260118015C2F2002148
S31502001590012209580A724CF20031C4F20001425883
S315020015A022F48032425040587047024641608868B1
S315020015B0C0231061C4F20203C86890610020506122
S315020015C0086803EB401040309060086803EB401057
S315020015D0D06091F90400002830D480B56F464EF2EF
S315020015E0001CC0B2CEF2000C497940EA0C03090194
S315020015F083F8001341F26011C2F2002141F8202063
S315020016004CF20031C4F2000151F8203023F4803349
S3150200161041F8203051F820101C21012301EAD001A3
S3150200162000F01F0041EA0C0E03FA00F0BFF35F8FD1
S31502001630CEF8800141F80C00BDE8804045F2430136
S315020016400020C5F249211160704780680268920342
S3150200165002D48160002070470C2070478268002007
S3150200166051607047844601610020CCE9053270471B
S315020016700146406890F90400002811D4C0B21C2229
S315020016804EF2801C00F01F0302EAD000CEF2000CDC
S3150200169001229A4040F80C20BFF34F8FBFF36F8FA1
S315020016A0002000220A607047B0B502AF84B0EFF3A3
S315020016B003804FF0704101EB00604CF2003180155F
S315020016C0C4F20001425822F48032425041F26012C2
S315020016D04158C2F200221458E0680568E8031FD593
S315020016E0606940B1D0E900C2D0E90231CDE90231E8
S315020016F0CDE900C200E068466168096801604FF4FE
S3150200170080318160A169C160E168C968416021696F
S315020017108847606900281CBF9DE80E1080E80E10FD
S3150200172035F440351ED0606940B1D0E900C2D0E937
S315020017300231CDE90231CDE900C200E068466168B6
S31502001740096801608560A169C16000214160216963
S315020017508847606900281CBF9DE80E1080E80E10BD
S31502001760E068056104B0B0BD80B56F4645F254220B
S31502001770C5F24F020260084600F002F8002080BD62
S31502001780F0B503AF4DF804BD044600F060F841F22F
S31502001790581CEFF31081C2F2002C012080F310884E
S315020017A0DCF8000038B940F614500022C4F24000BA
S315020017B0027040220270DCF800000130CCF8000012
S315020017C081F31088208828B340F6000E0021C4F267
S315020017D0400E07E00EEB8010013140F822302088DF
S315020017E0814217D2606800EBC10250F8313092880C
S315020017F0D8034FEA1220D2B2ECD50EEB801555F87B
S31502001800226026F4803645F8226023F4803645F8B5
S315020018102260DFE70120EFF3108180F31088DCF805
S31502001820000020B1DCF800000138CCF80000DCF83A
S31502001830000038B940F614500022C4F2400002708B
S315020018408022027081F310885DF804BBF0BDF0B50A
S3150200185003AF2DE9000F81B004460088002861D04D
S315020018604EF64C4B0025C4F2010B03E020880135ED
S31502001870854257D245F6F04942F240080026C0F2A8
S315020018800029C4F220080AE088F80000C8200121D5
S3150200189001F084FD013608F10208032EE6D06068E5
S315020018A039F8022B00EBC50189889142F2D150F832
S315020018B035009BF80010012200F0B85002FA06FA31
S315020018C0B0F1807F0AEA010015D158B9012001F072
S315020018D055FE9BF8000040EA0A008BF80000012042
S315020018E001F022FE98F900000028D3D498F80000EF
S315020018F040F08000C8E758B1012001F03FFE9BF896
S31502001900000020EA0A008BF80000012001F00CFE1C
S3150200191098F90000B0F1FF3FBCDC98F8000000F037
S315020019207F00B1E701B0BDE8000FF0BDF0B503AF2F
S315020019302DE9000780460161C86843F20C04C8F825
S315020019401400C4F220040869C8F81C004FF000090C
S31502001950C8F8189088F8009001204D69EFF31086B8
S3150200196080F310880121206820F40010206020688E
S31502001970962001F013FD86F31088E86900F0030053
S3150200198001280FD10120EFF3108680F31088012180
S31502001990606820F0004060606068962001F0FEFCFE
S315020019A086F3108848F2000A286AC4F2330ACAF893
S315020019B00C00CAF80090DAF8040008B12FF005C846
S315020019C0E869CAF808000120CAF80000DAF804003B
S315020019D00128FBD128464FF0020E00244FF0070CD7
S315020019E050F8242FCAF84020F6460F23002607E0B7
S315020019F003FA02F216430124BEF1010E00D10CE0F5
S31502001A00025D12F00C0FF6D102F00302012A4FEA30
S31502001A10C402EDD00CFA02F2ECE7CAF844604FF0C9
S31502001A20080ED5F89C00CAF8600295F890000AF5EF
S31502001A3058720AF560730AF5697600F00700CAF86B
S31502001A40800295F89000C0F30210CAF88C02D5F80D
S31502001A509400CAF88802D5F89800CAF89402686910
S31502001A60CAF84003A869CAF84403686ECAF8640251
S31502001A70A86ECAF8B00205F1A000016842F8041B7C
S31502001A80016A43F8041B416C043046F8041B0FF04C
S31502001A900DC048F20442D5F8E000C4F23302CAF897
S31502001AA0A0030020CAF8000410605060906041F262
S31502001AB0601C288F1C23C2F8BC00C2F2002C688F5F
S31502001AC04FF0010EC2F8C000E86BC2F8C400286CE1
S31502001AD0C2F8C800686CC2F8CC00A86CC2F8D00084
S31502001AE0E86CC2F8D40048F6F04040F2FF12C4F2A5
S31502001AF033004CF20035C4F200050260D8F810003B
S31502001B0042694EF20010CEF20000D26E03E0013BB3
S31502001B1002F1010222D092F91C60002EF7D4F6B22D
S31502001B2014788119240181F800434CF8268055F86F
S31502001B30261021F4803145F8261055F82610C6F3F2
S31502001B40421106F01F06BFF35F8F00EB81040EFA07
S31502001B5006F6C4F8806140F82160D8E74FF44030B9
S31502001B6044F24832CAF828000321CAF82010C4F207
S31502001B7044120020CAF82410C8F82420BDE8000741
S31502001B80F0BDD4D4D4D4D4D4D4D4D4D4D4D4D4D408
S31502001B90F0B503AF2DE9000F8BB080460069CCA2E9
S31502001BA00D464069212192ED001F002380EF50204F
S31502001BB088F8003021F001E0A0FD403E1FF005C08C
S31502001BC048F240264FF60C61C4F23306CFF6FF7197
S31502001BD0C26A72504FF61062CFF6FF72016BB150B5
S31502001BE04FF61461CFF6FF71426B725047F63F62B1
S31502001BF0016D46F8801C416D46F87C1C816D46F8E5
S31502001C00781CC16DCBF6CC7246F8741C8118026E34
S31502001C10102900F1700046F8702C09D24FF0080E18
S31502001C20314650F8042B41F8042B0FF007C008E0A8
S31502001C304FF0020E3146B0EC041FA1EC101E0FF05D
S31502001C4007C04246002142F8081F1046019242F898
S31502001C50041D2878002800F0E080CDF8008048F2C4
S31502001C60046845F2000B4EF6E02AC4F23308C4F2C9
S31502001C70230BC4F2010A00244FF0010C0023CDE924
S31502001C80022512E0039D089B0498079C95F800E044
S31502001C900343DDE90510013401FA00F009997445A0
S31502001CA0029A41EA000180F0B5806868CDE9083100
S31502001CB0079450F82450687929782B790028104621
S31502001CC0059308D1A8790028104604D1A8680028EF
S31502001CD0019850EA02800A4606910CFA01F18AB28C
S31502001CE0016804921143016028784FF68062CFF6AC
S31502001CF0FF72697906EB001081504FF684622878EC
S31502001D00CFF6FF72A97906EB001081504FF6886272
S31502001D102878CFF6FF72A96806EB00108150287862
S31502001D20296906EB800040F8401CE8780028A9D013
S31502001D304FF0000906E0C6F8E0C0E87809F10109AB
S31502001D4081459FD2A86950F82900017843680C01A1
S31502001D5006EB011208EB0111C2F8C033826848F89B
S31502001D600420C2684A6002698A604068C0F306209D
S31502001D706528E0D06428E0D19BF900000028DCD475
S31502001D8043F20C01EFF31084C4F220018CF31088A5
S31502001D90086820F48000086008689620012101F096
S31502001DA0FDFA84F310881AF8040C00071BD44EF2CD
S31502001DB0FA314AF22050C4F2010108809AF8000072
S31502001DC000F0FE008AF800001AF8040C40F0080041
S31502001DD00AF8040C9AF8000040F001008AF80000A4
S31502001DE04FF4254008809BF80000012140F0800056
S31502001DF08BF800001E2001F0D1FA9BF8000048F291
S31502001E0040264FF0010CC4F2330640F010008BF866
S31502001E10000092E7DDF8008002E000234FF0000E9A
S31502001E20D8F81000D0F814C0DCF8204014F4803F33
S31502001E305FEA1F9914F4003F5FEA1F90BEF1000F9C
S31502001E4007F81E9C07F81D0C20D01268F2B140F666
S31502001E50FE729A4602EA44096A680CF150000023AF
S31502001E60A7F11E0C52F8044B30F8025B64781CF89A
S31502001E700440002C4C4608BF04242C44A34253EAD7
S31502001E8084830FF011C8581C534600E00120C8F89D
S31502001E900C004FF6086048F24026CFF6FF70C4F2F7
S31502001EA0330644F24832C4F2441233504FF61C63EE
S31502001EB0CFF6FF730020F150C8F820200BB0BDE822
S31502001EC0000FF0BD00BF00BF00BF00BF00BF00BFD4
S31502001ED0008533404085334080853340C08533409A
S31502001EE048F608420146C4F23302406810600020F8
S31502001EF089689160704748F680410022C4F2330136
S31502001F0041F8782CC06810B101380A68FCD108681B
S31502001F1038B140F2011041F8200C086808B12FF0E0
S31502001F2005C00020704748F680420078C4F23302AA
S31502001F3001381268002A5FEA0F9204284FF0000067
S31502001F4038BF02220A7070474FF680604AF20003D9
S31502001F50CFF6FF70C4F2330300EB81001729184451
S31502001F6000F5C07038BF43EA81000168252000EA07
S31502001F70E17011807047D4D448F680410022C4F241
S31502001F803301027041F8782CC26812B1013A0B682B
S31502001F90FCD10A683AB140F2011241F8202C0A68D3
S31502001FA00AB12FF005C00322CA604A634FF6FF72D8
S31502001FB040F27333C0F27F02C0F277038A634B6446
S31502001FC048F280210278C4F2330104E0042202704E
S31502001FD0CB685B072AD1D2B2052A1CD8DFE802F009
S31502001FE01D0403210D0DF1E7032202700B685B0746
S31502001FF0F1D00720086004221CE00269526992F8B7
S31502002000903003F007030B6092F89020C2F302129D
S31502002010CA600522027000220CE00122027003222D
S3150200202008E0022202704FF4407203E00720C86003
S315020020304FF480620020C1F880297047F0B503AFE3
S315020020402DE9000F91B048F68848C4F23308D8F853
S315020020500000D8F81810C0074FF0070008BF032089
S31502002060C90704D14FF0000C4FF0000E04E0D8F877
S315020020701CC0D8F828E007204FF07043EFF3038125
S3150200208003EB016641F26013B115C2F2002348F276
S3150200209080254FEA266A5958C4F233050C7804E0C3
S315020020A004240C70EA68520738D1E4B2052C1FD812
S315020020B0DFE804F02304032A1010F1E703240C706E
S315020020C02A685207F1D007222A604FF00409032832
S315020020D020D029E00A69526992F8904004F0070478
S315020020E02C6092F89020C2F30212EA6005220A706E
S315020020F04FF0000903280DD016E001220A704FF0B6
S315020021000309032806D00FE002220A704FF4407931
S31502002110032809D1097805290AD248E00722EA608C
S315020021204FF480690328F5D006220A704FF00009A1
S31502002130EFF303814FF0704202EB0161891553F808
S3150200214001B0DBF8141091B38DF802000020ADF84F
S315020021501800CDF810C0DBE90603EC464FF0FF028B
S315020021608DF80820CDF814E00193ADF8002098B15F
S3150200217003460DF1200E56CBAEE8560093E8560004
S315020021808EE856000146BCE85C005CC19CE85C0037
S315020021905CC1DBF8141000E060468847DBF81800E3
S315020021A028B108A95CC95CC091E85C005CC001204A
S315020021B0C8F814004CF20030C4F2000050F82A109D
S315020021C021F4803140F82A1050F82A00D5F8000A86
S315020021D008B12FF005C8C5F8809911B0BDE8000F07
S315020021E0F0BDD4D4F0B503AF2DE9000F91B048F697
S315020021F08848C4F23308D8F80000D8F818108007C7
S315020022004FF0070058BF0320890704D44FF0000C93
S315020022104FF0000E04E0D8F81CC0D8F828E00720DA
S315020022204FF07043EFF3038103EB016641F2601353
S31502002230B115C2F2002348F280254FEA266A5958A0
S31502002240C4F233050C7804E004240C70EA685207E1
S3150200225038D1E4B2052C1FD8DFE804F02304032AA0
S315020022601010F1E703240C702A685207F1D00722F6
S315020022702A604FF00409032820D029E00A6952692E
S3150200228092F8904004F007042C6092F89020C2F372
S315020022900212EA6005220A704FF0000903280DD0E7
S315020022A016E001220A704FF00309032806D00FE058
S315020022B002220A704FF44079032809D109780529C8
S315020022C00AD248E00722EA604FF480690328F5D073
S315020022D006220A704FF00009EFF303814FF07042B5
S315020022E002EB0161891553F801B0DBF8141091B3C2
S315020022F08DF802000020ADF81800CDF810C0DBE919
S315020023000603EC464FF0FF028DF80820CDF814E0E4
S315020023100193ADF8002098B103460DF1200E56CB7D
S31502002320AEE8560093E856008EE856000146BCE831
S315020023305C005CC19CE85C005CC1DBF8141000E048
S3150200234060468847DBF8180028B108A95CC95CC05A
S3150200235091E85C005CC00220C8F814004CF2003020
S31502002360C4F2000050F82A1021F4803140F82A10F5
S3150200237050F82A00D5F8000A08B12FF005C8C5F8AA
S31502002380809911B0BDE8000FF0BDF0B503AF2DE99D
S31502002390000F93B048F6285B4FF07041C4F2330B3E
S315020023A041F26012C2F20022DBF800A0DBF8043030
S315020023B0DBF81060EFF3038001EB006081154FEA52
S315020023C0206852F80190D9F8141091B30820ADF89C
S315020023D020A08DF80A0001930693D9E906030DF1B0
S315020023E0080C4FF0FF028DF8102000960796039313
S315020023F0ADF8082080B103460AA974CB74C193E8EC
S31502002400740074C10146BCE86C006CC19CE86C00A7
S315020024106CC1D9F8141000E060468847D9F8180054
S3150200242028B10AA96CC96CC091E86C006CC0DDE9E0
S3150200243000631FFA8AF0CBF814004CF20030CBF896
S315020024401830C4F20000CBF8246050F8281021F4AA
S31502002450803140F8281050F8280013B0BDE8000F6C
S31502002460F0BDF0B503AF2DE9000B90B0EFF303809A
S315020024704FF0704101EB006041F260128115C2F229
S3150200248000224FEA206852F80190D9F8141079B365
S3150200249006208DF80200FF208DF808000020ADF816
S315020024A01800CDE90400D9E90602EC4601924FF084
S315020024B00102ADF8002080B1034608A974CB74C1AD
S315020024C093E8740074C10146BCE86C006CC19CE8D8
S315020024D06C006CC1D9F8141000E060468847D9F840
S315020024E0180028B108A96CC96CC091E86C006CC0D0
S315020024F048F68C400121C4F2330001604CF20030F0
S31502002500C4F2000050F8281021F4803140F8281057
S3150200251050F8280010B0BDE8000BF0BDF0B503AFCF
S315020025202DE9000B90B0EFF303804FF0704101EB01
S31502002530006041F260128115C2F200224FEA206861
S3150200254052F80190D9F8141079B306208DF80200DA
S31502002550FF208DF808000020ADF81800CDE9040030
S31502002560D9E90602EC4601924FF00202ADF80020CC
S3150200257080B1034608A974CB74C193E8740074C190
S315020025800146BCE86C006CC19CE86C006CC1D9F8D1
S31502002590141000E060468847D9F8180028B108A947
S315020025A06CC96CC091E86C006CC048F68C40022184
S315020025B0C4F2330001604CF20030C4F2000050F85D
S315020025C0281021F4803140F8281050F8280010B065
S315020025D0BDE8000BF0BDF0B503AF2DE9000F93B0D7
S315020025E048F6A44A4FF07041C4F2330A41F260122F
S315020025F0C2F20022DAF80030DAF80C90EFF3038028
S3150200260001EB006081154FEA206B52F80180D8F881
S31502002610141091B307208DF80A00FF208DF81000E0
S315020026200020ADF82000D8E906020DF1080C01934E
S31502002630CDE9063903924FF00102ADF8082080B1C8
S3150200264003460AA974CB74C193E8740074C10146A7
S31502002650BCE86C006CC19CE86C006CC1D8F8141024
S3150200266000E060468847D8F8180028B10AA96CC964
S315020026706CC091E86C006CC0019B0120CAF8143052
S31502002680CAF82090CAF810004CF20030C4F20000DA
S3150200269050F82B1021F4803140F82B1050F82B0003
S315020026A013B0BDE8000FF0BDF0B503AF2DE9000F82
S315020026B093B048F6A44A4FF07041C4F2330A41F28D
S315020026C06012C2F20022DAF80030DAF80C90EFF368
S315020026D0038001EB006081154FEA206B52F80180FE
S315020026E0D8F8141091B307208DF80A00FF208DF850
S315020026F010000020ADF82000D8E906020DF1080C02
S315020027000193CDE9063903924FF00202ADF8082093
S3150200271080B103460AA974CB74C193E8740074C1EC
S315020027200146BCE86C006CC19CE86C006CC1D8F830
S31502002730141000E060468847D8F8180028B10AA9A4
S315020027406CC96CC091E86C006CC0019B0220CAF88F
S315020027501430CAF82090CAF810004CF20030C4F2C5
S31502002760000050F82B1021F4803140F82B1050F85D
S315020027702B0013B0BDE8000FF0BDF0B503AF2DE995
S31502002780000B90B0EFF303804FF0704101EB006055
S3150200279041F260128115C2F200224FEA206852F815
S315020027A00190D9F8141071B300200123ADF8183046
S315020027B08DF8020005900490D9E90603EC464FF025
S315020027C0FF028DF808200193ADF8002080B1034680
S315020027D008A974CB74C193E8740074C10146BCE8BD
S315020027E06C006CC19CE86C006CC1D9F8141000E056
S315020027F060468847D9F8180028B108A96CC96CC088
S3150200280091E86C006CC048F654500121C4F23300C2
S3150200281001604CF20030C4F2000050F8281021F496
S31502002820803140F8281050F8280010B0BDE8000B9F
S31502002830F0BDF0B503AF2DE9000B90B0EFF30380C6
S315020028404FF0704101EB006041F260128115C2F255
S3150200285000224FEA206852F80190D9F8141071B399
S3150200286000200223ADF818308DF80200059004907E
S31502002870D9E90603EC464FF0FF028DF808200193D2
S31502002880ADF8002080B1034608A974CB74C193E861
S31502002890740074C10146BCE86C006CC19CE86C0013
S315020028A06CC1D9F8141000E060468847D9F81800C0
S315020028B028B108A96CC96CC091E86C006CC048F6D6
S315020028C054500221C4F2330001604CF20030C4F2CB
S315020028D0000050F8281021F4803140F8281050F8F2
S315020028E0280010B0BDE8000BF0BDF0B503AF2DE92E
S315020028F0000B90B0EFF303804FF0704101EB0060E4
S3150200290041F260128115C2F200224FEA206852F8A3
S315020029100190D9F8141071B300200423ADF81830D1
S315020029208DF8020005900490D9E90603EC464FF0B3
S31502002930FF028DF808200193ADF8002080B103460E
S3150200294008A974CB74C193E8740074C10146BCE84B
S315020029506C006CC19CE86C006CC1D9F8141000E0E4
S3150200296060468847D9F8180028B108A96CC96CC016
S3150200297091E86C006CC048F654500421C4F233004E
S3150200298001604CF20030C4F2000050F8281021F425
S31502002990803140F8281050F8280010B0BDE8000B2E
S315020029A0F0BDF0B503AF2DE9000B90B0EFF3038055
S315020029B04FF0704101EB006041F260128115C2F2E4
S315020029C000224FEA206852F80190D9F8141071B328
S315020029D000200823ADF818308DF802000590049007
S315020029E0D9E90603EC464FF0FF028DF80820019361
S315020029F0ADF8002080B1034608A974CB74C193E8F0
S31502002A00740074C10146BCE86C006CC19CE86C00A1
S31502002A106CC1D9F8141000E060468847D9F818004E
S31502002A2028B108A96CC96CC091E86C006CC048F664
S31502002A3054500821C4F2330001604CF20030C4F253
S31502002A40000050F8281021F4803140F8281050F880
S31502002A50280010B0BDE8000BF0BDF0B503AF2DE9BC
S31502002A60000B90B0EFF303804FF0704101EB006072
S31502002A7041F260128115C2F200224FEA206852F832
S31502002A800190D9F8141071B300201023ADF8183054
S31502002A908DF8020005900490D9E90603EC464FF042
S31502002AA0FF028DF808200193ADF8002080B103469D
S31502002AB008A974CB74C193E8740074C10146BCE8DA
S31502002AC06C006CC19CE86C006CC1D9F8141000E073
S31502002AD060468847D9F8180028B108A96CC96CC0A5
S31502002AE091E86C006CC048F654501021C4F23300D1
S31502002AF001604CF20030C4F2000050F8281021F4B4
S31502002B00803140F8281050F8280010B0BDE8000BBC
S31502002B10F0BDF0B503AF2DE9000F91B048F6F848C5
S31502002B204FF07041C4F2330841F26012C2F2002241
S31502002B3058F8049CEFF3038001EB006081154FEA1D
S31502002B40206A52F801B0DBF8141089B34846002314
S31502002B506FF35F20ADF8180005930493DBE90603D3
S31502002B600A22EC468DF802204FF0FF028DF808206B
S31502002B700193ADF8002080B1034608A974CB74C155
S31502002B8093E8740074C10146BCE86C006CC19CE811
S31502002B906C006CC1DBF8141000E060468847DBF875
S31502002BA0180028B108A96CC96CC091E86C006CC009
S31502002BB048466FF35F2048F8080CD8F8000069F31E
S31502002BC00800C8F800004CF20030C4F2000050F8C9
S31502002BD02A1021F4803140F82A1050F82A0011B048
S31502002BE0BDE8000FF0BDF0B503AF2DE9000B90B0C4
S31502002BF0EFF303804FF0704101EB006041F2601287
S31502002C008115C2F200224FEA206852F80190D9F8E3
S31502002C10141079B309208DF8020000200123ADF8C3
S31502002C20183005900490D9E90603EC464FF0FF02EE
S31502002C308DF808200193ADF8002080B1034608A95B
S31502002C4074CB74C193E8740074C10146BCE86C008D
S31502002C506CC19CE86C006CC1D9F8141000E06046A7
S31502002C608847D9F8180028B108A96CC96CC091E840
S31502002C706C006CC04CF20030C4F2000050F8281010
S31502002C8021F4803140F8281050F8280010B0BDE831
S31502002C90000BF0BDF0B503AF2DE9000B90B0EFF3DA
S31502002CA003804FF0704101EB006041F26012811522
S31502002CB0C2F200224FEA206852F80190D9F81410A5
S31502002CC079B309208DF8020000200223ADF81830EE
S31502002CD005900490D9E90603EC464FF0FF028DF801
S31502002CE008200193ADF8002080B1034608A974CBF1
S31502002CF074C193E8740074C10146BCE86C006CC1EF
S31502002D009CE86C006CC1D9F8141000E06046884754
S31502002D10D9F8180028B108A96CC96CC091E86C00F2
S31502002D206CC04CF20030C4F2000050F8281021F4B6
S31502002D30803140F8281050F8280010B0BDE8000B8A
S31502002D40F0BDF0B503AF2DE9000B90B0EFF30380B1
S31502002D504FF0704101EB006041F260128115C2F240
S31502002D6000224FEA206852F80190D9F8141079B37C
S31502002D7009208DF8020000200423ADF818300590D2
S31502002D800490D9E90603EC464FF0FF028DF80820BD
S31502002D900193ADF8002080B1034608A974CB74C133
S31502002DA093E8740074C10146BCE86C006CC19CE8EF
S31502002DB06C006CC1D9F8141000E060468847D9F857
S31502002DC0180028B108A96CC96CC091E86C006CC0E7
S31502002DD04CF20030C4F2000050F8281021F4803181
S31502002DE040F8281050F8280010B0BDE8000BF0BDDE
S31502002DF0F0B503AF2DE9000B90B0EFF303804FF06F
S31502002E00704101EB006041F260128115C2F20022AC
S31502002E104FEA206852F80190D9F8141079B30920C4
S31502002E208DF8020000200823ADF8183005900490B2
S31502002E30D9E90603EC464FF0FF028DF8082001930C
S31502002E40ADF8002080B1034608A974CB74C193E89B
S31502002E50740074C10146BCE86C006CC19CE86C004D
S31502002E606CC1D9F8141000E060468847D9F81800FA
S31502002E7028B108A96CC96CC091E86C006CC04CF210
S31502002E800030C4F2000050F8281021F4803140F8D6
S31502002E90281050F8280010B0BDE8000BF0BDF0B5C0
S31502002EA003AF2DE9000B90B0EFF303804FF07041B2
S31502002EB001EB006041F260128115C2F200224FEA74
S31502002EC0206852F80190D9F8141079B309208DF8C8
S31502002ED0020000201023ADF8183005900490D9E9BD
S31502002EE00603EC464FF0FF028DF808200193ADF879
S31502002EF0002080B1034608A974CB74C193E874001C
S31502002F0074C10146BCE86C006CC19CE86C006CC1E3
S31502002F10D9F8141000E060468847D9F8180028B19D
S31502002F2008A96CC96CC091E86C006CC04CF2003008
S31502002F30C4F2000050F8281021F4803140F828101D
S31502002F4050F8280010B0BDE8000BF0BD4EF2240187
S31502002F50C4F201018878098801F00F02A2F1080182
S31502002F6003293BD8DFE801F0022C101E41F20001D2
S31502002F70C2F2002151F820004AF6AB21CAF6AA2174
S31502002F80A0FB0101480830E041F20001C2F2002133
S31502002F9051F820004AF6AB21CAF6AA21A0FB01018C
S31502002FA0C80822E041F20001C2F2002151F82000D5
S31502002FB04AF6AB21CAF6AA21A0FB0101080914E0D0
S31502002FC041F20001C2F2002151F820004AF6AB217B
S31502002FD0CAF6AA21A0FB0101880806E041F2000117
S31502002FE0C2F2002151F82000D04041F2C011C2F2D3
S31502002FF0002108607047D4D4D4D4D4D4D4D4D4D441
S31502003000F0B503AF2DE9000F81B0D1A04EF2FA3828
S3150200301041F2000BC4F201084AF2015190ED001F81
S31502003020C2F2002BCEA0CFF6FF714EF25505023149
S31502003030A8F800108BED001F0BF12003C4F2010566
S3150200304090ED001F48F200404DF20001C1F2D77028
S315020030504BF200028BED041FC1F21231C0F671323F
S3150200306007C315F82F0C35F8311C01F00F02A2F137
S31502003070080103292BD8DFE801F002200C164AF6D4
S31502003080AB215BF82000CAF6AA21A0FB0101480881
S3150200309020E04AF6AB215BF82000CAF6AA21A0FB83
S315020030A00101C80816E04AF6AB215BF82000CAF611
S315020030B0AA21A0FB010108090CE04AF6AB215BF844
S315020030C02000CAF6AA21A0FB0101880802E05BF8EB
S315020030D02000D04041F2C01A4EF60044C2F2002A45
S315020030E0C4F201040A214EF60146CAF800004FF660
S315020030F05060CFF6FF70C4F201062154092085F80C
S315020031004D00207818B93078800700F01A812078AF
S3150200311040B901202070C820012100F03FF9207833
S315020031200128FCD10020307020704AF2015900209B
S3150200313005F8230C15F8190C0007FBD544F60170A7
S31502003140C5F8730040F2214025F8070C002005F867
S315020031500B0C4FF60210C5F8570040F2514025F805
S31502003160090C15F8410C00F0F800013005F8410C85
S3150200317015F8410CC006FBD4002005F82B0C15F8F7
S31502003180190C8006FBD54CF200040020C4F213048D
S3150200319020702078207820786068FA2806D0FA20F5
S315020031A0C1F6006060606168FA29FBD1A0687D28DB
S315020031B006D07D20CEF20010A060A1687D29FBD149
S315020031C043F23240C3F2232045F8350C42F2201076
S315020031D025F8310C052005F82F0C15F82F0C35F8BB
S315020031E0311C01F00F02A2F1080103292BD8DFE8F6
S315020031F001F002200C164AF6AB215BF82000CAF653
S31502003200AA21A0FB0101480820E04AF6AB215BF89F
S315020032102000CAF6AA21A0FB0101C80816E04AF658
S31502003220AB215BF82000CAF6AA21A0FB010108091E
S315020032300CE04AF6AB215BF82000CAF6AA21A0FBF5
S315020032400101880802E05BF82000D040CAF80000BD
S3150200325096200121012600F0A1F860686FF39F20F5
S31502003260652828BF267015F82F0C35F8311C01F099
S315020032700F02A2F1080103292BD8DFE801F0022090
S315020032800C164AF6AB215BF82000CAF6AA21A0FB6F
S315020032900101480820E04AF6AB215BF82000CAF695
S315020032A0AA21A0FB0101C80816E04AF6AB215BF889
S315020032B02000CAF6AA21A0FB010108090CE04AF681
S315020032C0AB215BF82000CAF6AA21A0FB01018808FF
S315020032D002E05BF82000D04042F20001CAF800008A
S315020032E0C4F2000101204FF42542A1F80090BFF379
S315020032F05F8F0872BFF35F8F0A8005F8250C05F809
S31502003300030C05F8020C287840F04000287095F965
S315020033100000B0F1FF3FFADC022005F8010CC620DE
S315020033202870287800F0BF00287095F90000002860
S31502003330FBD44FF42540A8F8000001B0BDE8000F09
S31502003340F0BD4FF47A7000F013F8EEE600BF00BF4E
S31502003350006CDC0200127A000080000000366E016A
S315020033600080000000CA9A3B00389C1C5543DE13BD
S315020033707047D0B502AF42F228000024C4F2200002
S315020033800470012000F0FAF84EF64C410120C4F216
S3150200339001010C70BDE8D04000F0C6B841F2C0127F
S315020033A041F20023C2F20022C0F27A0348431268B5
S315020033B09A420FD344F23F21C0F20F0111444DF657
S315020033C08362C4F21B32A1FB0212910CA0FB010123
S315020033D0C9B11DE04CF60021C3F69A31B1FBF2F1F8
S315020033E048F63812C0F24102904205D24FF47A7280
S315020033F05043B0FBF1F006E0B0FBF1F0904207D289
S315020034004FF47A714843002808BF704700F004B8A9
S315020034104FF0FF3000F000B801380028FCD17047A9
S3150200342041F204130246C2F20023002043F822109E
S315020034307047F0B503AF4DF8048D4CF2201841F2F7
S315020034400414C4F200080026C2F2002458F8200C24
S31502003450D8F8001001EA000503E001360434152EFF
S3150200346009D025FA06F0C007F7D021680029F4D062
S31502003470F0B28847F1E748F8105CD8F80000284215
S31502003480FBD15DF8048BF0BD00780021C4F2020185
S3150200349051F8200000285FEA0F90C00070470178BB
S315020034A00022C4F202020020012342F821307047B2
S315020034B080B56F4641F25C11C2F20021086043F208
S315020034C0DF41C0F200211420FFF7AAFF4CF20011DF
S315020034D00020C4F200014FF480120A6080BD142855
S315020034E018BF704788200121C4F20200016041F230
S315020034F05C10C2F20020006800B10047704780B538
S315020035006F464FF0160E4CF2003045F6A441C4F257
S315020035100000C0F2002131F8022B002A18BF026017
S3150200352004300FF009C080BD0122EFF3108182F34F
S31502003530108841F2B812C2F2002232F8103023B1DA
S3150200354032F81030013B22F8103032F8102012B156
S3150200355081F3108870474EF2FA3245F6447CC4F283
S315020035600102C0F2002C13883CF8100043F42543F4
S3150200357023EA0000108081F310887047D0B502AFAD
S315020035800122EFF3108182F3108841F2B812C2F2DF
S31502003590002232F8103083B94EF2FA3E45F6447CE8
S315020035A0C4F2010EC0F2002CBEF800403CF8103006
S315020035B0234343F42543AEF8003032F8103001338A
S315020035C022F8103081F31088D0BD80B56F4600F026
S315020035D007F8FDF76CFAFEE700BE7047D4D4D4D4E0
S315020035E0F0B503AF2DE900074EF6085840F2012068
S315020035F0CEF20008C0F20E004EF20004C8F80C002B
S31502003600CEF20104BFF34F8FBFF36F8F58F8080C49
S31502003610C0F3035110F00F0F5FEA0F9001295FEA22
S315020036201081206810D879B940F0040020604EF26B
S315020036300800BFF34F8FCEF20000BFF36F8F016811
S3150200364041F48031016002E020F004002060BFF303
S315020036504F8FBFF36F8F4FF4700040F20001C8F82E
S3150200366080000020C0F20021C8F80010FCF748FFD5
S31502003670FFF7C6FC0120FCF743FF40F20000C2F24E
S31502003680002080F30A882068800725D5D8F8000034
S31502003690B0F1007F20D120694FF40071C0F3C3005E
S315020036A0626901FA00F3C2F3C30081400020DA081E
S315020036B00646CB08014642F007C800BF00BF00BF5E
S315020036C0E6E802010FF005C04FF0005243F005C0D4
S315020036D0E2E802010FF005C045F61859C0F20029CA
S315020036E0D9F800508DB1D9F804002E46041D03E026
S315020036F0013E04F10C0408D060790028F8D154E99F
S315020037000101091A01F04DFCF2E7D9F808A0BAF155
S31502003710000F13D0D9F80C00564600F1080403E056
S31502003720013E04F1100409D060790028F8D154E969
S3150200373002022168121A01F038FCF1E7FFF706FCD3
S31502003740FFF717FE0320FFF719FF4FF00E0E40F6A4
S315020037503050C4F24000002120F8041B0FF005C0CF
S315020037604EF210140320C4F20104FFF7DDFE03201B
S31502003770FFF704FF44F204000021C4F220000160B6
S3150200378041608160C1600320FFF7CEFED4F8C80213
S3150200379010B1D4F8C80211E0207878B10120FFF701
S315020037A0EDFE207800F0C0008028FAD100202070BB
S315020037B020783F28FCD80120FFF7B6FE0120FFF74C
S315020037C0DDFE207900F0C0008028FAD100202071A9
S315020037D020793F28FCD80120FFF7A6FE0220FCF73D
S315020037E08FFE9DB1D9F804004FF48076041D03E0E4
S315020037F0013D04F10C0409D06079B6EB002FF7D134
S3150200380054E90101091A01F0CCFBF1E7BAF1000F04
S3150200381016D0D9F80C004FF4807500F1080404E0C4
S31502003820BAF1010A04F110040AD06079B5EB002F4F
S31502003830F6D154E902022168121A01F0B6FBEFE74B
S3150200384041F2D414C2F20024204600F02DF820469C
S3150200385000F040F8BFF34F8F002046F2EA21BFF393
S315020038606F8FC8F8480246F2EA20C0F20020C0F282
S315020038700021BFF34F8F081ABFF36F8F8410012CFC
S3150200388008DB46F2EA25C0F2002555F8040B80470C
S31502003890013CFAD1FFF733FE0020BDE80007BDE880
S315020038A0F04000F000B87047D0B502AF05490446B3
S315020038B0054A01F07AFB05480549204401F071FBEF
S315020038C0D0BD00BFC40000020000000000000000DE
S315020038D0000000000249401A02490860704700BF12
S315020038E008000000D0110022B0B502AF88B004462D
S315020038F00B48029002208DF806006FF0004000256A
S3150200390020440795CDE90355ADF804500594069079
S3150200391001A800F007F8002800D4255408B0B0BD6D
S315020039203F460002F0B503AF2DE9000F97B081467E
S3150200393080781692800740F1D984D9F804000026CF
S315020039400E908846169815900FA8821D0992421D60
S315020039500138079206900B91414611F8010B252872
S3150200396003D0884640B900F0C3BC98F801A008F11C
S315020039700208BAF1250F06D100F09EFD0136002895
S31502003980EAD500F0ADBC002200244FF0000C4FF047
S31502003990000B1FFA8BF51F2D0DD8AAF12700092857
S315020039A031D8DFE800F0B10A0A0A050A730A0A707A
S315020039B04BF0020B61E07F2D11D8AAF130000928E5
S315020039C02AD8402D27BF04EB840100EB41040CEBFF
S315020039D08C0100EB410C38BF4BF0200B94E0BAF19E
S315020039E04C0F4DD0BAF1680F53D0BAF16A0F47D0D7
S315020039F0BAF17A0F18BFBAF1740F00F08580BAF1E6
S31502003A006C0F4DD088E0BAF1200F36D0BAF1230FF1
S31502003A10D3D14BF0100B77E0BAF1240F4DD0BAF1A7
S31502003A207A0F71D0BAF12E0F41D0BAF14C0F27D0CE
S31502003A30BAF1680F2DD0BAF16A0F21D0BAF16C0F24
S31502003A402ED0BAF1740F5FD0BAF12A0F64D1002AD0
S31502003A505AD11598011D159100683F2D52D8B0F123
S31502003A60FF3FDDBF4BF0280BC0F1000C00224BF0EC
S31502003A70200BC4BF0022844646E04BF0040B43E011
S31502003A804BF4207B40E04BF0010B3DE04BF0080B82
S31502003A903AE00BF480704BEA400040F4807B33E05E
S31502003AA00BF080004BEA800040F0800B2CE03F2DAB
S31502003AB000F21E844BF0400B26E0E2B11698402D30
S31502003AC01590A2460B98CDF8349015A991465CEA5A
S31502003AD03482644600F018FC1598A44654464A46B9
S31502003AE0011D15910068402DDDF8349050EA3C8C9A
S31502003AF05AEA308408E0624600244FF0000C4FF088
S31502003B00000B01E00022044618F801ABBAF1000FDF
S31502003B107FF43FAF4FF0000ACDF834C03AB11698A1
S31502003B2015900B9815A900F0EFFBDDF834C04AF0AA
S31502003B302000002C24EAE475A0F1650148BF2BF0B1
S31502003B40400B032901D3612831D11599A0EB0A0A4A
S31502003B50073121F00701612801F10802159291ED62
S31502003B60000B14D15FEA4B6058BF4FF0FF350FAC24
S31502003B705FFA8AF22946204600F0BAFC0546013071
S31502003B800890702003904BF4C05B012041E05FEA8D
S31502003B904B6158BF0625C1B20FAC662920D06529F4
S31502003BA026D165204BF4805B691C002326E05FFA70
S31502003BB08AF2A2F16F01062959D80C9208234FF016
S31502003BC0000EDFE811F0E9010700E301E301AD01B0
S31502003BD0E301A5014BF0100B10234FF0780EDBE149
S31502003BE066204BF4005B0122039011212B4607E06D
S31502003BF02906294608BF0121002302380390002224
S31502003C00C9B22046112928BF112100F020FD0890D3
S31502003C100220DDF83CE0DDF834C01EF1090F07DAB8
S31502003C201EF1630F0FD21EF57A7F0AD804200BE02D
S31502003C30BEF1090F08DDBEF1630F04D9BEF57A7F26
S31502003C40F4D2032000E002209DF840100490C80739
S31502003C501FFA8BF007D15FEA8B7206D442071DD496
S31502003C60002201231CE02D2219E02B2217E0692AEB
S31502003C7018BF642A40F036811FFA8BF05FEA0B61A7
S31502003C8000F13D8115990A1D15920A68C10540F198
S31502003C903D81800554BF12B252B237E12022002381
S31502003CA011F00C0F0C9319D00C9800284FF003005A
S31502003CB050EA1090844522DD5FEA0B7121D4A0EB15
S31502003CC00C04154600F004FC002800F109830134B7
S31502003CD006F10106F6D300242A4614E01BF4405FDF
S31502003CE0029242D10121012D55EA8181089DEAB253
S31502003CF042B313191B79302B24D1013DF7E7002477
S31502003D0001E0ACEB00040C9830B9104600F0D4FB8D
S31502003D10002800F1E58201369DF84000DFF8E4153F
S31502003D200007DFF8DC0550EA51852878002800F004
S31502003D30CE82A0EB0A0000F0D7FB0136013500283F
S31502003D40F3D5CDE2C006089552EA51801EF1040F62
S31502003D500ADB8E4508DA86454BF4005BAEBF0025CA
S31502003D606FEA0E01451800E0451E1FFA8BF15FEA65
S31502003D708B404FEA01500591019007D400284FF07D
S31502003D80050058BF03200499084404E00120BEF14F
S31502003D90010F50EABE90DDF814B0002D0C9A4FF0D8
S31502003DA00004CDF828E0CBF3001182F0010251EABB
S31502003DB005918B180344BCEB030353EAC4841BF03E
S31502003DC0090F0ED16CB108441044A0EB0C0400F0AC
S31502003DD07FFB002800F18482013406F10106F6D346
S31502003DE000240C980028029805D100F065FB0028F3
S31502003DF000F176820136019800280CD500F070FB9E
S31502003E00002800F16D82CAF1780000F06DFB0028EF
S31502003E1000F1668202360598000709D444B12644A9
S31502003E2000F05EFB002800F15B82013CF8D1002421
S31502003E3005980A9980042CD49DF8410031281EBFAA
S31502003E409DF8401001F0EF018DF8401000F034FBB0
S31502003E50002800F14582012DC0F2E58000F03CFB0E
S31502003E60002800F13D82A81902300D900898C6B2CA
S31502003E700020854200F0A88100F1010BB3453ABF4C
S31502003E800999085C302000F017FB00285846F0D547
S31502003E9026E2079821EAE17AC5F1000BCAF100058C
S31502003EA008440C900898C0B20D90012D05D100F07F
S31502003EB013FB002800F1148201360A9841194FF0CB
S31502003EC0300004D40D9A9142BCBF0C98405DDA458D
S31502003ED052DD00F0F1FAAAF1010A01350136002895
S31502003EE0E3D5FDE1632A0C9250D1159801250DF117
S31502003EF03C0A011D159100688DF83C0025E08005FD
S31502003F00159800F19680011D15910268D31798E065
S31502003F104FF6EF700BEA000B0A234FF0750E3BE0EB
S31502003F201598011D15915FEA4B6158BF4FF0FF3599
S31502003F300068DFF8C813002851EA008A294650466D
S31502003F4000F070FBDDF834C005465FEA0B7000F145
S31502003F509881AC455CEA358BAC4540F291810E9A6C
S31502003F602020494664469047002800F1B981A446BC
S31502003F700136A4F1010CEFE70131C0F098819DF8FA
S31502003F804110352940F28D81312090E1782840F0A8
S31502003F900681CAF18803D646CDF830E04FF6F970AD
S31502003FA00BEA000E5FEA0B600CD41598011D159101
S31502003FB000685FEACE510CD55FEA8E5154BF80B2DB
S31502003FC0C0B206E05FEA8E50159804D4011D159121
S31502003FD00068002107E0073020F007010A46496819
S31502003FE052F8080B159250EA010208BF2BF0160E82
S31502003FF00DD00DF13C0A7446524600F037FADDF850
S3150200400034C0A0EB0A0BA646DDF830A037E05FEA23
S315020040104B62EED5012CECDA4FF6E9700BEA000E94
S315020040204FF0000BF0E70598C00600F1C680701C41
S31502004030C9E0073020F007000146436851F8082B13
S3150200404015915846002B48BF40F4806020F0100EB0
S3150200405082EAE37083EAE371B0EBE37061EBE3714A
S315020040601A4300F092800DF13C0B0A2374465A461D
S3150200407000F0FCF9A646DDF834C0A0EB0B0B5FEAB4
S315020040804E6002D4714658460CE04FF6FE700EEAB8
S315020040900001AB45584605DA2846BAF1000F08BFBB
S315020040A02EF011018AB2C90605D440F206410A422F
S315020040B05FEA0F9104E00121BAF1000F51EA019182
S315020040C00C180C92100719D4D00706D05D46644529
S315020040D0BEBF0BEB0C00051B6446A4455CEAC4801C
S315020040E00A90644509DA00F0F3F9002800F1F88035
S315020040F001340136DDF834C0F3E70A9C0C99C80690
S3150200410010D440F20640014221D088074FF02B001E
S3150200411058BF2020490548BF2D2000F0CDF90028C0
S3150200412012D5DDE000F0DCF9002800F1D980BAF101
S31502004130000F09D00E9A5FFA8AF049469047002886
S3150200414000F1CE80023600E00136DDF834C0ACEB79
S3150200415004045D4506DD00F0C3F9013D0136002881
S31502004160F7D5BDE00698002500EB0B0ACBF1000B54
S31502004170AB4508D01AF8050049460E9A9047013D0C
S315020041800028F5D5ACE0761BA1E05FEA4B627FF52D
S315020041906AAF012CBFF667AF4FF0000B6FE70E9ABE
S315020041A0252049469047002800F19A800C984946F6
S315020041B00E9A90470236FFF7E2BB00F08DF900280F
S315020041C000F18E80B01C0D90039849460E9AA0EB22
S315020041D00A00C0B29047002800F182800A9900299D
S315020041E008D405D19DF84000C00603D400200A90E9
S315020041F02B2002E02D2049420A9100F05DF90028A9
S315020042006ED40498042815D30A994FF47A700E9A3C
S31502004210B1FBF0F5494605F13000C0B290470028DF
S315020042205ED44FF47A700A9905FB10110D9800F1CD
S31502004230030A05E00D99032801F1020A0A992DD114
S31502004240642000F03CF900284AD46420294606FB83
S3150200425010510AF1010A0A2000F031F900283FD470
S3150200426006EB860029460AF1010AA5EB400101F197
S31502004270300000F039F9002832D40AF1010626E0AE
S31502004280DC462E44ACEB05040DB31AF8010B494685
S315020042900E9A9047013D0028F6D521E00228DAD28F
S315020042A0E5E704D19DF84010C9067FF56DAE00F032
S315020042B003F9002814D40599701CC90606D52DB930
S315020042C000F00AF900280BD4023600E00646012C5B
S315020042D0FFF642AB00F0FCF80136013C0028F6D5A9
S315020042E099F8020040F0040089F802004FF0FF3608
S315020042F0304617B0BDE8000FF0BD00BF13580002EC
S315020043003554000229570002F0B503AF2DE9000724
S315020043108246554889464FF001084FF0010C554632
S31502004320944580F29D802B4613F8011B252903D064
S3150200433000291D46F7D193E06C780235252CF2D080
S3150200434000264FF0000E0023B1B21F2908D8A4F1AF
S315020043502001102906D808FA01F1014243D101E0F1
S315020043607F290AD8A4F13001092913D803EB830364
S3150200437046F0200601EB430335E04C2C23D0682C93
S3150200438024D06A2C1FD07A2C18BF742C2BD06C2CFC
S3150200439023D033E07A2C26D02A2C18BF2E2C01D11A
S315020043A0002320E04C2C0ED0682C0FD06A2C0AD0A9
S315020043B06C2C12D0742C16D0242C1FD1BEF1000FF7
S315020043C016D19E46ECE746F420760CE006F48071A0
S315020043D046EA410141F4807605E006F0800146EAAC
S315020043E0810141F0800615F8014B002CACD104E0A6
S315020043F06345D5D16324E64600E00024BEF1000FF2
S315020044002ED0E6457FF48CAF44F02001A1F165037E
S31502004410032B01D361290BD1D9F80010073121F002
S31502004420070101F10803C9F800300CF1010C76E727
S31502004430E3B2732B0ED0642B18BF692B08D1310659
S3150200444008D5D9F80030B1B2890507D40433EAE7B2
S31502004450632BF4D1D9F800100B1DE4E7D91DDEE772
S31502004460BDE80007F0BD00BF89280100F0B503AF23
S315020044702DE9000B03F01F09984614460D46064621
S31502004480304629464A46002300F0CEFD00FB19625B
S31502004490A2EB0803092A88BF03F13702303204F877
S315020044A0012BB6EB0902064675F100020D46E7D26C
S315020044B02046BDE8000BF0BD0E9A494610470E9AFB
S315020044C0B1FBF0F60D4606F130004946C0B2104780
S315020044D00E9A2020494610470E9A2E20494610472A
S315020044E00E9A3020494610470E9AC0B249461047E6
S315020044F0F0B503AF2DE9FE0F8146302089F805009D
S3150200450050EC106B90460D4631230446C0F30A5216
S3150200451042EA06016FF31F54214307D02AB1A2F2E1
S31502004520FF3289F80530322300E03D4A4FEAD07B5C
S31502004530002D89F804B003D40C2D03D90D253FE0D4
S3150200454000253DE03320A0EB850A069202200021D9
S315020045505246019300F042FD424205924FF000029C
S315020045608A4104920138039061F100000021204043
S3150200457002900120524600F031FD82460398069AC7
S315020045803040BAEB0000029871EB00000BD3A80092
S31502004590C0F1340203913046214600F032FD039900
S315020045A0C007069A08D016EB0A064C41B4F5801FDE
S315020045B024BF019889F8050005980640049804402E
S315020045C0B2F5806F09D156EA04004FF0080008BF21
S315020045D00420584489F804001BE094461220411F27
S315020045E016D016F00F0201D1A9420BDCA2EB08038A
S315020045F057330A2A38BF02F13003A94251EAC58568
S3150200460009F80030310941EA047624090138E6E75F
S315020046106246C9F80020284607B0BDE8000FF0BD83
S3150200462002FCFFFFD0B502AF4218034629B11C783F
S3150200463014B101390133F9E71A46101AD0BDD1E98E
S3150200464004239A421EBF531C0B6110707047F0B5CB
S3150200465003AF2DE9000F9DB08B4651EC109B0D4622
S31502004660CC0F6FF31F55C1F30A5159EA050C08BF67
S3150200467000290CD040F2FF76B14211D108214FF049
S31502004680000ABCF1000F08BF0421214406E03021D4
S315020046904FF0010A417100210160A11C0171F5E18F
S315020046A0CDE907400029A1F235440A9218BF05F563
S315020046B080154FEA850242EA9970139004BF4FF6BD
S315020046C0CC34CFF6FF74BCF1000F5FEA0F900229DB
S315020046D05FEA2F91002C40EA01084FEA8900129006
S315020046E009F001000490CDF814B00993CDF83C808E
S315020046F039D4204600F0EAFA0646032C88BF013E6A
S31502004700304600F0EFFA14A98246304600F07CFBF0
S3150200471018A81AA9CDF80880CDE90010301B50441C
S3150200472014AA00F17C034846294600F0CFF98046D8
S315020047308946152E00F29080129D139C284621462A
S3150200474000F0B4F9820842EA817120F003000844BD
S315020047504042E84254D12846214600F0CBFAB04204
S315020047605FEA3F9049E0C4F1000B584600F0B4FA04
S315020047708246601C18BFAAF1010AABEB0A0B584627
S3150200478000F0B0FA14A9064658468B4600F0D0FA55
S3150200479018A81AA95A46CDF80880CDE90010AAEB46
S315020047A0060000F17D034846294600F08FF90AEB20
S315020047B0040680468946BAF1010F09D80498DDF845
S315020047C014B00A9A58BB0120099B11900F9847E032
S315020047D0DDF814B0BAF13E0F3ED84FF0FF304FF07D
S315020047E0FF31524600F0FAFB139A22EA0101129AAD
S315020047F022EA000008435FEA1F90119000202DE094
S315020048000498C0B90F98C043401964F1000100F042
S3150200481071FAB0425FEA3F90002111911EE0DDE994
S315020048201A01099B01381A9061F1000001211B90BF
S315020048300020119114E045F00200214600F05AFAD8
S31502004840DDE91A124B1E62F10004B04253EA2180DE
S315020048501A9054EA22801B9000201190DDE9093259
S315020048600F9058466AB1404649461C4600F00DFA7A
S315020048703119234608440128D8BF012083455BEA43
S31502004880B080CDF84090C24606960025DDE918694B
S31502004890DDE91A410B900020CDE9120020460E9464
S315020048A00D9100F0FAF804468B4630464946CDF89B
S315020048B0309000F0F2F88046001B894671EB0B003F
S315020048C00DD31099504600F0E0F90B99884225DD88
S315020048D02A46012519B9109850EA0A0021D01099E2
S315020048E0504600F0DAF810911299119A11F0FF0F62
S315020048F05FEA1F910A40119208EB88027142524206
S315020049004646B1EB420F0F9A5FEA1F910A4000EB4F
S3150200491080010F9200F0D1F95946BFE7DDF84080D9
S3150200492004E04FF0000A4FF000081546DDF83CC0DF
S31502004930DDF820B05FEACC702AD0DDF83090CDE900
S315020049400FC53046494600F0A8F8044600EB800041
S3150200495040420D467142B1EB400F1CD1DDE90D100C
S3150200496000F09BF8CDE90D105046414600F095F84F
S3150200497088461299119A264611F0FF0F5FEA1F9197
S315020049800A4000EB80011192A94600F096F9D8E799
S315020049905446C24605E0DDE90FC55446C246CDF887
S315020049A030900698139901EB00081298C0B20528B8
S315020049B05FEA0F91EA070ED10C9B84EA060283EAAC
S315020049C00A031A4307D1049A002A5FEA1F9202EAEF
S315020049D00C02012A5FD1119A82F00102114321438E
S315020049E004285FEA9F9001EA000566194AF1000968
S315020049F03046494600F049F90446F5B10B998C4216
S31502004A001CDD0A9840B1099805994044204420EAE1
S31502004A10E070814251EAB0818C420FDD701D0D4675
S31502004A2049F100010A22002300F0FEFA013C08F1D6
S31502004A30010889460646294600E00B998C4254EA4B
S31502004A40B1800FFA80FA0FFA88F00AF10405A0F194
S31502004A5001080024544512DA304649460A22002348
S31502004A6000F0E2FA894600EB80010134A6EB41012F
S31502004A70064641F030010BF80510013DEAE70798BA
S31502004A808BF8040008EB0A00CBF8000050461DB074
S31502004A90BDE8000FF0BD0125A7E780B56F4600F01F
S31502004AA005F8C00840EA4170C90880BDF8B504AFF0
S31502004AB002AA0092044A4FF0CC3300F036FADDE93E
S31502004AC0020104B080BD00BFCDCCCCCCF0B503AFA3
S31502004AD02DE9000F8DB01E469046D2E900230AAC9E
S31502004AE00094490041EAD07445002846214600F068
S31502004AF01CFAD8E90223824605912146DDE90AB964
S31502004B0008A80090284600F010FA1BEB000B49EBB0
S31502004B100109DDE90A010496BBEB0000CDF818A0F5
S31502004B2079EB0100DDE908125FEA2F904B1C42F196
S31502004B300005002855EA128253EA1185413E98E89B
S31502004B401B0015F1010C42F1000E13EB0B0344EBB3
S31502004B50090410EB0A000992059808950796009633
S31502004B608246484153F1000044F10001B0EB0B03C9
S31502004B7071EB09035FEA2F93002B5EEA12835CEA6C
S31502004B80158200F0F3F9BA68C2E900013869012812
S31502004B9028D1D8E90223D8E900EC07ADBBEB020223
S31502004BA069EB030331CD561E63F1000100900698AE
S31502004BB0B0EB0E007AEB0C005FEA2F90002856EA63
S31502004BC0128051EA1381BBEB000279EB01025FEA24
S31502004BD02F92631E65F10006002A53EA148256EAF2
S31502004BE0158342E0D8E900E04FEA4B03D8E90245D3
S31502004BF043EADA7302904FEA4A01DDE908C01C1B58
S31502004C00069A0390049841EAD271A0F140060096F2
S31502004C104FEA490646EADB7666EB0505601E65F154
S31502004C200008DEEB4202029A91415FEA2F910029C7
S31502004C3050EA148058EA15811A1A76EB0102039C8F
S31502004C405FEA2F92B3EB0B0376EB09035FEA2F932E
S31502004C50640043EA4C0344EADC745D1E64F1000618
S31502004C60002A55EA138256EA148300F07FF9FA689D
S31502004C70C2E9000107AB49460DCB0090584600F049
S31502004C8075F90DB0BDE8000FF0BDF0B503AF4DF8F4
S31502004C9004BD00230A2401220A25461B71EB0306E2
S31502004CA007D3A5FB045603EB8303013206EB43034A
S31502004CB0F3E710465DF804BBF0BDAAEB4101129181
S31502004CC013998246013113917047D4D4014948435E
S31502004CD0800C70474134010001494843000D70477A
S31502004CE0FB2E0B0002494843012101EBD0407047DD
S31502004CF04F931200F0B503AF4DF804BD0A4B0246BE
S31502004D000A4D4FF0FF304FF0CC3CA2FB036401305A
S31502004D1002FB0C4201FB0321721B71F13332324654
S31502004D20F3D35DF804BBF0BDCDCCCCCC34333333F6
S31502004D30F0B503AF2DE9000F89B08A461A21B0FB00
S31502004D40F1F2054602FB01FB2C4800EB02105D4521
S31502004D5002D100F0D3F84DE006A9294A0091A5EB4D
S31502004D600B0152F8314002EBC101D0E902234E6831
S31502004D7001680391416820460291314600F0D5F858
S31502004D80804604A8DDE90232894600902046314673
S31502004D9000F0CBF80E46DDE904120390002018EB72
S31502004DA0010859EB020940F10000012801D100F087
S31502004DB09DF82846FFF796FF04465846FFF792FFEE
S31502004DC0241A0398314642464B46009400F0CEF828
S31502004DD01E226FF0030302EA450203EA9503094D18
S31502004DE0EB5800F093F800F099F8009400F0BEF842
S31502004DF0CAE9020109B0BDE8000FF0BD605F00021A
S31502004E003060000200610002F0B503AF2DE9000F29
S31502004E1089B08A46054619301A21B0FBF1F23048AC
S31502004E2002FB01F600EB0210AE4202D100F066F878
S31502004E3051E006A92B4A0091711BD0E9009B52F85A
S31502004E40318002EBC101D0E902234C68404621467B
S31502004E5000F06BF8CDE9021004A8B9F101026BF17A
S31502004E60000300904046214600F05FF88B46DDE9DC
S31502004E7003310446002011EB0308059A029952EB0E
S31502004E80010940F10000012801D100F02FF8304657
S31502004E90FFF728FF06462846FFF724FF361A204664
S31502004EA0594642464B46009600F060F86FF00303FF
S31502004EB00D4C03EA95031E2202EA4502E35800F06E
S31502004EC025F8013041F1000100F028F8009600F0C3
S31502004ED04DF8CAE9020109B0BDE8000FF0BD00BFF6
S31502004EE0586100023060000248620002DDE90601F4
S31502004EF00130069041F100000790704790E80E00DD
S31502004F00C0688AE80E00CAF80C00704723FA02F25B
S31502004F1002F00302801841F100017047DDE9062321
S31502004F20CAE90001404649467047F0B503AF4DF85D
S31502004F3004BDA3FB0145D7F808E0A2FB0116A2FBBC
S31502004F4000C25218744145F1000511462646E3FB9C
S31502004F500016A3FB0003801854EB030045F1000082
S31502004F60CEE9006060465DF804BBF0BDF0B503AF64
S31502004F702DE9000BD7F80880164689460546C8F182
S31502004F8040023046194600F029F806460C462846E5
S31502004F904946424600F035F830432143BDE8000B4E
S31502004FA0F0BD0A46002100F00AB8D0B502AF0023D0
S31502004FB09A4203D0CC5CC4540133F9E7D0BD002336
S31502004FC09A4208BF7047C1540133F9E7034613F802
S31502004FD0012B002AFBD1181A01387047930641BFEC
S31502004FE0A2F1200100FA01F100207047002A1FBF3A
S31502004FF09140C2F1200320FA03F3194318BF9040EF
S315020050007047930641BFA2F1200021FA00F0002169
S315020050107047002A1FBFD040C2F1200301FA03F3F2
S31502005020184318BFD140704740B584B002AE00960F
S3150200503000F004F8029A039B04B040BD2DE9F04F3C
S31502005040099D844681B1C2B16BB3B1FA81F7B3FA55
S3150200505083F6F71B202F50D3002D18BFC5E900C1D8
S3150200506000200021BDE8F08FD3B30021002D4AD0E5
S315020050700020C5E900C1BDE8F08F002B46D000280C
S315020050805CD05F1E3B4266D1002D1CBF07EA0100C1
S31502005090C5E900C093FAA3F0B0FA80F021FA00F055
S315020050A00021BDE8F08F571E3A4232D1002D1EBFB5
S315020050B000230740C5E90073012A0ED092FAA2F234
S315020050C04F00B2FA82F202F01F03D140D8401F23EA
S315020050D0934307FA03F343EA000C6046BDE8F08FF8
S315020050E0B0FBF2FC002D1EBF0CFB12000021C5E92D
S315020050F0000100216046BDE8F08F07F1010CBCF10A
S31502005100200F10D031E00020BDE8F08F6046BDE8E8
S31502005110F08FB1FA81F7B2FA82F6F71B07F1210C8A
S31502005120BCF1200F32D14FF000094FF0200C0D4692
S315020051304FF0000ABCF1010F26D04DE0B1FBF3FCA3
S31502005140002D1EBF0CFB13100021C5E90010002123
S315020051506046BDE8F08FB1FA81F7B3FA83F6F71B22
S315020051601F2FBFF479AF07F1010C87F01F0720FA52
S315020051700CF621FA0CF901FA07F5B84035434FF05F
S31502005180000ABCF1010F27D1002466E0BCF11F0F13
S315020051900FD8CCF1200620FA0CF721FA0CF901FA05
S315020051A006F5B0403D434FF0000ABCF1010FEBD0CB
S315020051B012E0ACF12007CCF140044FF0000920FACE
S315020051C007F601FA04F52E4300FA04FA21FA07F566
S315020051D03046BCF1010FD7D02CF001070126023F61
S315020051E04FF0000B06EB570E4FEA490444EAD5741A
S315020051F06D0045EAD0754000E743E943891847EB5D
S315020052000308AF1A64EB0306B8F1000F56EA4484AA
S3150200521057EA4585640044EAD5746D0045EAD075BF
S3150200522040EADA70AE1A6FEA050164EB03078918E1
S315020052304FEA40006FEA0401594157EA448956EAA7
S315020052404585CC0F4BEA4A010027A34640EAD170B6
S31502005250490041EAD87A0FF039C85FEACC711ED00C
S315020052606F004FEA490147EAD07741EAD571B7EBB9
S31502005270020C4FEA400061EB030EFD4352196FEA3E
S31502005280010656EB030240EADA705EEA41895CEAFD
S315020052904785D10F44EA4A0200270C4692464FEA56
S315020052A0DA7141EA400009994FEA4A02002918BF19
S315020052B0C1E9005940EA070122F001002043BDE896
S315020052C0F08F0D0A43616C656E64617254696D6597
S315020052D020476574206661696C65642E0D0A000DAF
S315020052E00A506572696F64696320696E74657272C9
S315020052F075707420726174652073657474696E6763
S31502005300206661696C65642E0D0A001B5B731B5B6C
S3150200531025643B2564481B5B324B5B494E464F5D19
S315020053203A205363616E6E696E672054656D7065CF
S315020053307261747572652E2E2E1B5B750072746314
S315020053405F646174655F726561646162696C6974E8
S31502005350795F75706461746500696E69745F616412
S31502005360635F74736E000D0A525F4144435F425F8E
S315020053704F70656E206661696C65640D0A526573CD
S315020053807461727420746865204170706C6963611F
S3150200539074696F6E0D0A00525F5254435F43616C2B
S315020053A0656E64617254696D6553657420666169E0
S315020053B06C65642E0D0A000D0A54534E2041444377
S315020053C02073746F70206661696C65640D0A52659C
S315020053D0737461727420746865204170706C6963BD
S315020053E06174696F6E0D0A000D0A525443206D6F87
S315020053F064756C65206F70656E206661696C6564A4
S315020054002E0D0A52657374617274207468652041A8
S3150200541070706C69636174696F6E0D0A00736574EE
S315020054205F7274635F706572696F6469635F7365E7
S31502005430636F6E6400696E66001B5B731B5B25649B
S315020054403B2564481B5B324B54696D65202530321F
S31502005450643A2025303264203A20253032641B5BC0
S3150200546075001B5B731B5B25643B2564481B5B3223
S315020054704B0D0A525F4950435F4D65737361676511
S3150200548053656E64206661696C65642E0D0A1B5B4A
S3150200549075000D0A525F4144435F425F5265616483
S315020054A0206661696C65642E0D0A000D0A525F4121
S315020054B044435F425F43616C696272617465206650
S315020054C061696C65640074736E5F7363616E5F73AA
S315020054D0746172740074736E5F7363616E5F73746A
S315020054E06F7000736D656D5F6F75747075745F6252
S315020054F0757379000D0A43616C656E646172206191
